{
  "_format": "hh-sol-artifact-1",
  "contractName": "ALUAssetRegistry",
  "sourceName": "contracts/ALUAssetRegistry.sol",
  "abi": [
    {
      "inputs": [],
      "stateMutability": "nonpayable",
      "type": "constructor"
    },
    {
      "inputs": [
        {
          "internalType": "address",
          "name": "sender",
          "type": "address"
        },
        {
          "internalType": "uint256",
          "name": "tokenId",
          "type": "uint256"
        },
        {
          "internalType": "address",
          "name": "owner",
          "type": "address"
        }
      ],
      "name": "ERC721IncorrectOwner",
      "type": "error"
    },
    {
      "inputs": [
        {
          "internalType": "address",
          "name": "operator",
          "type": "address"
        },
        {
          "internalType": "uint256",
          "name": "tokenId",
          "type": "uint256"
        }
      ],
      "name": "ERC721InsufficientApproval",
      "type": "error"
    },
    {
      "inputs": [
        {
          "internalType": "address",
          "name": "approver",
          "type": "address"
        }
      ],
      "name": "ERC721InvalidApprover",
      "type": "error"
    },
    {
      "inputs": [
        {
          "internalType": "address",
          "name": "operator",
          "type": "address"
        }
      ],
      "name": "ERC721InvalidOperator",
      "type": "error"
    },
    {
      "inputs": [
        {
          "internalType": "address",
          "name": "owner",
          "type": "address"
        }
      ],
      "name": "ERC721InvalidOwner",
      "type": "error"
    },
    {
      "inputs": [
        {
          "internalType": "address",
          "name": "receiver",
          "type": "address"
        }
      ],
      "name": "ERC721InvalidReceiver",
      "type": "error"
    },
    {
      "inputs": [
        {
          "internalType": "address",
          "name": "sender",
          "type": "address"
        }
      ],
      "name": "ERC721InvalidSender",
      "type": "error"
    },
    {
      "inputs": [
        {
          "internalType": "uint256",
          "name": "tokenId",
          "type": "uint256"
        }
      ],
      "name": "ERC721NonexistentToken",
      "type": "error"
    },
    {
      "anonymous": false,
      "inputs": [
        {
          "indexed": true,
          "internalType": "address",
          "name": "owner",
          "type": "address"
        },
        {
          "indexed": true,
          "internalType": "address",
          "name": "approved",
          "type": "address"
        },
        {
          "indexed": true,
          "internalType": "uint256",
          "name": "tokenId",
          "type": "uint256"
        }
      ],
      "name": "Approval",
      "type": "event"
    },
    {
      "anonymous": false,
      "inputs": [
        {
          "indexed": true,
          "internalType": "address",
          "name": "owner",
          "type": "address"
        },
        {
          "indexed": true,
          "internalType": "address",
          "name": "operator",
          "type": "address"
        },
        {
          "indexed": false,
          "internalType": "bool",
          "name": "approved",
          "type": "bool"
        }
      ],
      "name": "ApprovalForAll",
      "type": "event"
    },
    {
      "anonymous": false,
      "inputs": [
        {
          "indexed": true,
          "internalType": "uint256",
          "name": "tokenId",
          "type": "uint256"
        },
        {
          "indexed": false,
          "internalType": "string",
          "name": "name",
          "type": "string"
        },
        {
          "indexed": false,
          "internalType": "bytes32",
          "name": "contentHash",
          "type": "bytes32"
        },
        {
          "indexed": false,
          "internalType": "address",
          "name": "registrant",
          "type": "address"
        }
      ],
      "name": "AssetRegistered",
      "type": "event"
    },
    {
      "anonymous": false,
      "inputs": [
        {
          "indexed": true,
          "internalType": "address",
          "name": "from",
          "type": "address"
        },
        {
          "indexed": true,
          "internalType": "address",
          "name": "to",
          "type": "address"
        },
        {
          "indexed": true,
          "internalType": "uint256",
          "name": "tokenId",
          "type": "uint256"
        }
      ],
      "name": "Transfer",
      "type": "event"
    },
    {
      "inputs": [
        {
          "internalType": "address",
          "name": "to",
          "type": "address"
        },
        {
          "internalType": "uint256",
          "name": "tokenId",
          "type": "uint256"
        }
      ],
      "name": "approve",
      "outputs": [],
      "stateMutability": "nonpayable",
      "type": "function"
    },
    {
      "inputs": [
        {
          "internalType": "address",
          "name": "owner",
          "type": "address"
        }
      ],
      "name": "balanceOf",
      "outputs": [
        {
          "internalType": "uint256",
          "name": "",
          "type": "uint256"
        }
      ],
      "stateMutability": "view",
      "type": "function"
    },
    {
      "inputs": [
        {
          "internalType": "uint256",
          "name": "tokenId",
          "type": "uint256"
        }
      ],
      "name": "getApproved",
      "outputs": [
        {
          "internalType": "address",
          "name": "",
          "type": "address"
        }
      ],
      "stateMutability": "view",
      "type": "function"
    },
    {
      "inputs": [
        {
          "internalType": "uint256",
          "name": "_tokenId",
          "type": "uint256"
        }
      ],
      "name": "getAsset",
      "outputs": [
        {
          "components": [
            {
              "internalType": "string",
              "name": "name",
              "type": "string"
            },
            {
              "internalType": "string",
              "name": "fileType",
              "type": "string"
            },
            {
              "internalType": "bytes32",
              "name": "contentHash",
              "type": "bytes32"
            },
            {
              "internalType": "address",
              "name": "registrant",
              "type": "address"
            },
            {
              "internalType": "uint256",
              "name": "timestamp",
              "type": "uint256"
            }
          ],
          "internalType": "struct ALUAssetRegistry.AssetMetadata",
          "name": "",
          "type": "tuple"
        }
      ],
      "stateMutability": "view",
      "type": "function"
    },
    {
      "inputs": [
        {
          "internalType": "address",
          "name": "owner",
          "type": "address"
        },
        {
          "internalType": "address",
          "name": "operator",
          "type": "address"
        }
      ],
      "name": "isApprovedForAll",
      "outputs": [
        {
          "internalType": "bool",
          "name": "",
          "type": "bool"
        }
      ],
      "stateMutability": "view",
      "type": "function"
    },
    {
      "inputs": [],
      "name": "name",
      "outputs": [
        {
          "internalType": "string",
          "name": "",
          "type": "string"
        }
      ],
      "stateMutability": "view",
      "type": "function"
    },
    {
      "inputs": [
        {
          "internalType": "uint256",
          "name": "tokenId",
          "type": "uint256"
        }
      ],
      "name": "ownerOf",
      "outputs": [
        {
          "internalType": "address",
          "name": "",
          "type": "address"
        }
      ],
      "stateMutability": "view",
      "type": "function"
    },
    {
      "inputs": [
        {
          "internalType": "string",
          "name": "_name",
          "type": "string"
        },
        {
          "internalType": "string",
          "name": "_fileType",
          "type": "string"
        },
        {
          "internalType": "bytes32",
          "name": "_contentHash",
          "type": "bytes32"
        }
      ],
      "name": "registerAsset",
      "outputs": [
        {
          "internalType": "uint256",
          "name": "",
          "type": "uint256"
        }
      ],
      "stateMutability": "nonpayable",
      "type": "function"
    },
    {
      "inputs": [
        {
          "internalType": "address",
          "name": "from",
          "type": "address"
        },
        {
          "internalType": "address",
          "name": "to",
          "type": "address"
        },
        {
          "internalType": "uint256",
          "name": "tokenId",
          "type": "uint256"
        }
      ],
      "name": "safeTransferFrom",
      "outputs": [],
      "stateMutability": "nonpayable",
      "type": "function"
    },
    {
      "inputs": [
        {
          "internalType": "address",
          "name": "from",
          "type": "address"
        },
        {
          "internalType": "address",
          "name": "to",
          "type": "address"
        },
        {
          "internalType": "uint256",
          "name": "tokenId",
          "type": "uint256"
        },
        {
          "internalType": "bytes",
          "name": "data",
          "type": "bytes"
        }
      ],
      "name": "safeTransferFrom",
      "outputs": [],
      "stateMutability": "nonpayable",
      "type": "function"
    },
    {
      "inputs": [
        {
          "internalType": "address",
          "name": "operator",
          "type": "address"
        },
        {
          "internalType": "bool",
          "name": "approved",
          "type": "bool"
        }
      ],
      "name": "setApprovalForAll",
      "outputs": [],
      "stateMutability": "nonpayable",
      "type": "function"
    },
    {
      "inputs": [
        {
          "internalType": "bytes4",
          "name": "interfaceId",
          "type": "bytes4"
        }
      ],
      "name": "supportsInterface",
      "outputs": [
        {
          "internalType": "bool",
          "name": "",
          "type": "bool"
        }
      ],
      "stateMutability": "view",
      "type": "function"
    },
    {
      "inputs": [],
      "name": "symbol",
      "outputs": [
        {
          "internalType": "string",
          "name": "",
          "type": "string"
        }
      ],
      "stateMutability": "view",
      "type": "function"
    },
    {
      "inputs": [
        {
          "internalType": "uint256",
          "name": "tokenId",
          "type": "uint256"
        }
      ],
      "name": "tokenURI",
      "outputs": [
        {
          "internalType": "string",
          "name": "",
          "type": "string"
        }
      ],
      "stateMutability": "view",
      "type": "function"
    },
    {
      "inputs": [
        {
          "internalType": "address",
          "name": "from",
          "type": "address"
        },
        {
          "internalType": "address",
          "name": "to",
          "type": "address"
        },
        {
          "internalType": "uint256",
          "name": "tokenId",
          "type": "uint256"
        }
      ],
      "name": "transferFrom",
      "outputs": [],
      "stateMutability": "nonpayable",
      "type": "function"
    },
    {
      "inputs": [
        {
          "internalType": "uint256",
          "name": "_tokenId",
          "type": "uint256"
        },
        {
          "internalType": "bytes32",
          "name": "_contentHash",
          "type": "bytes32"
        }
      ],
      "name": "verifyLogoIntegrity",
      "outputs": [
        {
          "internalType": "bool",
          "name": "",
          "type": "bool"
        },
        {
          "internalType": "string",
          "name": "",
          "type": "string"
        }
      ],
      "stateMutability": "view",
      "type": "function"
    }
  ],
  "bytecode": "0x608060405234801562000010575f80fd5b506040518060400160405280601281526020017f414c5520417373657420526567697374727900000000000000000000000000008152506040518060400160405280600581526020017f414c554152000000000000000000000000000000000000000000000000000000815250815f90816200008d91906200030c565b5080600190816200009f91906200030c565b505050620003f0565b5f81519050919050565b7f4e487b71000000000000000000000000000000000000000000000000000000005f52604160045260245ffd5b7f4e487b71000000000000000000000000000000000000000000000000000000005f52602260045260245ffd5b5f60028204905060018216806200012457607f821691505b6020821081036200013a5762000139620000df565b5b50919050565b5f819050815f5260205f209050919050565b5f6020601f8301049050919050565b5f82821b905092915050565b5f600883026200019e7fffffffffffffffffffffffffffffffffffffffffffffffffffffffffffffffff8262000161565b620001aa868362000161565b95508019841693508086168417925050509392505050565b5f819050919050565b5f819050919050565b5f620001f4620001ee620001e884620001c2565b620001cb565b620001c2565b9050919050565b5f819050919050565b6200020f83620001d4565b620002276200021e82620001fb565b8484546200016d565b825550505050565b5f90565b6200023d6200022f565b6200024a81848462000204565b505050565b5b818110156200027157620002655f8262000233565b60018101905062000250565b5050565b601f821115620002c0576200028a8162000140565b620002958462000152565b81016020851015620002a5578190505b620002bd620002b48562000152565b8301826200024f565b50505b505050565b5f82821c905092915050565b5f620002e25f1984600802620002c5565b1980831691505092915050565b5f620002fc8383620002d1565b9150826002028217905092915050565b6200031782620000a8565b67ffffffffffffffff811115620003335762000332620000b2565b5b6200033f82546200010c565b6200034c82828562000275565b5f60209050601f83116001811462000382575f84156200036d578287015190505b620003798582620002ef565b865550620003e8565b601f198416620003928662000140565b5f5b82811015620003bb5784890151825560018201915060208501945060208101905062000394565b86831015620003db5784890151620003d7601f891682620002d1565b8355505b6001600288020188555050505b505050505050565b61291180620003fe5f395ff3fe608060405234801561000f575f80fd5b50600436106100fe575f3560e01c80638802a54111610095578063b88d4fde11610064578063b88d4fde146102cf578063c87b56dd146102eb578063e985e9c51461031b578063eac8f5b81461034b576100fe565b80638802a5411461023457806395d89b411461026457806397e430ee14610282578063a22cb465146102b3576100fe565b806323b872dd116100d157806323b872dd1461019c57806342842e0e146101b85780636352211e146101d457806370a0823114610204576100fe565b806301ffc9a71461010257806306fdde0314610132578063081812fc14610150578063095ea7b314610180575b5f80fd5b61011c60048036038101906101179190611b3b565b61037b565b6040516101299190611b80565b60405180910390f35b61013a61045c565b6040516101479190611c23565b60405180910390f35b61016a60048036038101906101659190611c76565b6104eb565b6040516101779190611ce0565b60405180910390f35b61019a60048036038101906101959190611d23565b610506565b005b6101b660048036038101906101b19190611d61565b61051c565b005b6101d260048036038101906101cd9190611d61565b61061b565b005b6101ee60048036038101906101e99190611c76565b61063a565b6040516101fb9190611ce0565b60405180910390f35b61021e60048036038101906102199190611db1565b61064b565b60405161022b9190611deb565b60405180910390f35b61024e60048036038101906102499190611f63565b610701565b60405161025b9190611deb565b60405180910390f35b61026c6108cc565b6040516102799190611c23565b60405180910390f35b61029c60048036038101906102979190611feb565b61095c565b6040516102aa929190612029565b60405180910390f35b6102cd60048036038101906102c89190612081565b6109fe565b005b6102e960048036038101906102e4919061215d565b610a14565b005b61030560048036038101906103009190611c76565b610a39565b6040516103129190611c23565b60405180910390f35b610335600480360381019061033091906121dd565b610a9f565b6040516103429190611b80565b60405180910390f35b61036560048036038101906103609190611c76565b610b2d565b604051610372919061230a565b60405180910390f35b5f7f80ac58cd000000000000000000000000000000000000000000000000000000007bffffffffffffffffffffffffffffffffffffffffffffffffffffffff1916827bffffffffffffffffffffffffffffffffffffffffffffffffffffffff1916148061044557507f5b5e139f000000000000000000000000000000000000000000000000000000007bffffffffffffffffffffffffffffffffffffffffffffffffffffffff1916827bffffffffffffffffffffffffffffffffffffffffffffffffffffffff1916145b80610455575061045482610ce0565b5b9050919050565b60605f805461046a90612357565b80601f016020809104026020016040519081016040528092919081815260200182805461049690612357565b80156104e15780601f106104b8576101008083540402835291602001916104e1565b820191905f5260205f20905b8154815290600101906020018083116104c457829003601f168201915b5050505050905090565b5f6104f582610d49565b506104ff82610dcf565b9050919050565b6105188282610513610e08565b610e0f565b5050565b5f73ffffffffffffffffffffffffffffffffffffffff168273ffffffffffffffffffffffffffffffffffffffff160361058c575f6040517f64a0ae920000000000000000000000000000000000000000000000000000000081526004016105839190611ce0565b60405180910390fd5b5f61059f838361059a610e08565b610e21565b90508373ffffffffffffffffffffffffffffffffffffffff168173ffffffffffffffffffffffffffffffffffffffff1614610615578382826040517f64283d7b00000000000000000000000000000000000000000000000000000000815260040161060c93929190612387565b60405180910390fd5b50505050565b61063583838360405180602001604052805f815250610a14565b505050565b5f61064482610d49565b9050919050565b5f8073ffffffffffffffffffffffffffffffffffffffff168273ffffffffffffffffffffffffffffffffffffffff16036106bc575f6040517f89c62b640000000000000000000000000000000000000000000000000000000081526004016106b39190611ce0565b60405180910390fd5b60035f8373ffffffffffffffffffffffffffffffffffffffff1673ffffffffffffffffffffffffffffffffffffffff1681526020019081526020015f20549050919050565b5f60085f8381526020019081526020015f205f9054906101000a900460ff1615610760576040517f08c379a000000000000000000000000000000000000000000000000000000000815260040161075790612406565b60405180910390fd5b5f600654905060065f81548092919061077890612451565b9190505550610787338261102c565b6040518060a001604052808681526020018581526020018481526020013373ffffffffffffffffffffffffffffffffffffffff1681526020014281525060075f8381526020019081526020015f205f820151815f0190816107e89190612635565b5060208201518160010190816107fe9190612635565b50604082015181600201556060820151816003015f6101000a81548173ffffffffffffffffffffffffffffffffffffffff021916908373ffffffffffffffffffffffffffffffffffffffff16021790555060808201518160040155905050600160085f8581526020019081526020015f205f6101000a81548160ff021916908315150217905550807fe91b35acb617d4d94bebfb32d4c22892b6c01053999d98f62787ba481c2e91808685336040516108b993929190612713565b60405180910390a2809150509392505050565b6060600180546108db90612357565b80601f016020809104026020016040519081016040528092919081815260200182805461090790612357565b80156109525780601f1061092957610100808354040283529160200191610952565b820191905f5260205f20905b81548152906001019060200180831161093557829003601f168201915b5050505050905090565b5f60608260075f8681526020019081526020015f2060020154036109bb5760016040518060400160405280601281526020017f4c6f676f2069732061757468656e7469632e0000000000000000000000000000815250915091506109f7565b5f6040518060400160405280601d81526020017f5761726e696e673a206c6f676f20646f6573206e6f74206d617463682e000000815250915091505b9250929050565b610a10610a09610e08565b8383611049565b5050565b610a1f84848461051c565b610a33610a2a610e08565b85858585611222565b50505050565b6060610a4482610d49565b505f610a4e6113ce565b90505f815111610a6c5760405180602001604052805f815250610a97565b80610a76846113e4565b604051602001610a87929190612789565b6040516020818303038152906040525b915050919050565b5f60055f8473ffffffffffffffffffffffffffffffffffffffff1673ffffffffffffffffffffffffffffffffffffffff1681526020019081526020015f205f8373ffffffffffffffffffffffffffffffffffffffff1673ffffffffffffffffffffffffffffffffffffffff1681526020019081526020015f205f9054906101000a900460ff16905092915050565b610b35611a90565b60075f8381526020019081526020015f206040518060a00160405290815f82018054610b6090612357565b80601f0160208091040260200160405190810160405280929190818152602001828054610b8c90612357565b8015610bd75780601f10610bae57610100808354040283529160200191610bd7565b820191905f5260205f20905b815481529060010190602001808311610bba57829003601f168201915b50505050508152602001600182018054610bf090612357565b80601f0160208091040260200160405190810160405280929190818152602001828054610c1c90612357565b8015610c675780601f10610c3e57610100808354040283529160200191610c67565b820191905f5260205f20905b815481529060010190602001808311610c4a57829003601f168201915b5050505050815260200160028201548152602001600382015f9054906101000a900473ffffffffffffffffffffffffffffffffffffffff1673ffffffffffffffffffffffffffffffffffffffff1673ffffffffffffffffffffffffffffffffffffffff1681526020016004820154815250509050919050565b5f7f01ffc9a7000000000000000000000000000000000000000000000000000000007bffffffffffffffffffffffffffffffffffffffffffffffffffffffff1916827bffffffffffffffffffffffffffffffffffffffffffffffffffffffff1916149050919050565b5f80610d54836114ae565b90505f73ffffffffffffffffffffffffffffffffffffffff168173ffffffffffffffffffffffffffffffffffffffff1603610dc657826040517f7e273289000000000000000000000000000000000000000000000000000000008152600401610dbd9190611deb565b60405180910390fd5b80915050919050565b5f60045f8381526020019081526020015f205f9054906101000a900473ffffffffffffffffffffffffffffffffffffffff169050919050565b5f33905090565b610e1c83838360016114e7565b505050565b5f80610e2c846114ae565b90505f73ffffffffffffffffffffffffffffffffffffffff168373ffffffffffffffffffffffffffffffffffffffff1614610e6d57610e6c8184866116a6565b5b5f73ffffffffffffffffffffffffffffffffffffffff168173ffffffffffffffffffffffffffffffffffffffff1614610ef857610eac5f855f806114e7565b600160035f8373ffffffffffffffffffffffffffffffffffffffff1673ffffffffffffffffffffffffffffffffffffffff1681526020019081526020015f205f82825403925050819055505b5f73ffffffffffffffffffffffffffffffffffffffff168573ffffffffffffffffffffffffffffffffffffffff1614610f7757600160035f8773ffffffffffffffffffffffffffffffffffffffff1673ffffffffffffffffffffffffffffffffffffffff1681526020019081526020015f205f82825401925050819055505b8460025f8681526020019081526020015f205f6101000a81548173ffffffffffffffffffffffffffffffffffffffff021916908373ffffffffffffffffffffffffffffffffffffffff160217905550838573ffffffffffffffffffffffffffffffffffffffff168273ffffffffffffffffffffffffffffffffffffffff167fddf252ad1be2c89b69c2b068fc378daa952ba7f163c4a11628f55a4df523b3ef60405160405180910390a4809150509392505050565b611045828260405180602001604052805f815250611769565b5050565b5f73ffffffffffffffffffffffffffffffffffffffff168373ffffffffffffffffffffffffffffffffffffffff16036110b9575f6040517fa9fbf51f0000000000000000000000000000000000000000000000000000000081526004016110b09190611ce0565b60405180910390fd5b5f73ffffffffffffffffffffffffffffffffffffffff168273ffffffffffffffffffffffffffffffffffffffff160361112957816040517f5b08ba180000000000000000000000000000000000000000000000000000000081526004016111209190611ce0565b60405180910390fd5b8060055f8573ffffffffffffffffffffffffffffffffffffffff1673ffffffffffffffffffffffffffffffffffffffff1681526020019081526020015f205f8473ffffffffffffffffffffffffffffffffffffffff1673ffffffffffffffffffffffffffffffffffffffff1681526020019081526020015f205f6101000a81548160ff0219169083151502179055508173ffffffffffffffffffffffffffffffffffffffff168373ffffffffffffffffffffffffffffffffffffffff167f17307eab39ab6107e8899845ad3d59bd9653f200f220920489ca2b5937696c31836040516112159190611b80565b60405180910390a3505050565b5f8373ffffffffffffffffffffffffffffffffffffffff163b11156113c7578273ffffffffffffffffffffffffffffffffffffffff1663150b7a02868685856040518563ffffffff1660e01b815260040161128094939291906127fe565b6020604051808303815f875af19250505080156112bb57506040513d601f19601f820116820180604052508101906112b8919061285c565b60015b61133c573d805f81146112e9576040519150601f19603f3d011682016040523d82523d5f602084013e6112ee565b606091505b505f81510361133457836040517f64a0ae9200000000000000000000000000000000000000000000000000000000815260040161132b9190611ce0565b60405180910390fd5b805160208201fd5b63150b7a0260e01b7bffffffffffffffffffffffffffffffffffffffffffffffffffffffff1916817bffffffffffffffffffffffffffffffffffffffffffffffffffffffff1916146113c557836040517f64a0ae920000000000000000000000000000000000000000000000000000000081526004016113bc9190611ce0565b60405180910390fd5b505b5050505050565b606060405180602001604052805f815250905090565b60605f60016113f28461178c565b0190505f8167ffffffffffffffff8111156114105761140f611e0c565b5b6040519080825280601f01601f1916602001820160405280156114425781602001600182028036833780820191505090505b5090505f82602083010190505b6001156114a3578080600190039150507f3031323334353637383961626364656600000000000000000000000000000000600a86061a8153600a858161149857611497612887565b5b0494505f850361144f575b819350505050919050565b5f60025f8381526020019081526020015f205f9054906101000a900473ffffffffffffffffffffffffffffffffffffffff169050919050565b808061151f57505f73ffffffffffffffffffffffffffffffffffffffff168273ffffffffffffffffffffffffffffffffffffffff1614155b15611651575f61152e84610d49565b90505f73ffffffffffffffffffffffffffffffffffffffff168373ffffffffffffffffffffffffffffffffffffffff161415801561159857508273ffffffffffffffffffffffffffffffffffffffff168173ffffffffffffffffffffffffffffffffffffffff1614155b80156115ab57506115a98184610a9f565b155b156115ed57826040517fa9fbf51f0000000000000000000000000000000000000000000000000000000081526004016115e49190611ce0565b60405180910390fd5b811561164f57838573ffffffffffffffffffffffffffffffffffffffff168273ffffffffffffffffffffffffffffffffffffffff167f8c5be1e5ebec7d5bd14f71427d1e84f3dd0314c0f7b2291e5b200ac8c7c3b92560405160405180910390a45b505b8360045f8581526020019081526020015f205f6101000a81548173ffffffffffffffffffffffffffffffffffffffff021916908373ffffffffffffffffffffffffffffffffffffffff16021790555050505050565b6116b18383836118dd565b611764575f73ffffffffffffffffffffffffffffffffffffffff168373ffffffffffffffffffffffffffffffffffffffff160361172557806040517f7e27328900000000000000000000000000000000000000000000000000000000815260040161171c9190611deb565b60405180910390fd5b81816040517f177e802f00000000000000000000000000000000000000000000000000000000815260040161175b9291906128b4565b60405180910390fd5b505050565b611773838361199d565b61178761177e610e08565b5f858585611222565b505050565b5f805f90507a184f03e93ff9f4daa797ed6e38ed64bf6a1f01000000000000000083106117e8577a184f03e93ff9f4daa797ed6e38ed64bf6a1f01000000000000000083816117de576117dd612887565b5b0492506040810190505b6d04ee2d6d415b85acef81000000008310611825576d04ee2d6d415b85acef8100000000838161181b5761181a612887565b5b0492506020810190505b662386f26fc10000831061185457662386f26fc10000838161184a57611849612887565b5b0492506010810190505b6305f5e100831061187d576305f5e100838161187357611872612887565b5b0492506008810190505b61271083106118a257612710838161189857611897612887565b5b0492506004810190505b606483106118c557606483816118bb576118ba612887565b5b0492506002810190505b600a83106118d4576001810190505b80915050919050565b5f8073ffffffffffffffffffffffffffffffffffffffff168373ffffffffffffffffffffffffffffffffffffffff161415801561199457508273ffffffffffffffffffffffffffffffffffffffff168473ffffffffffffffffffffffffffffffffffffffff16148061195557506119548484610a9f565b5b8061199357508273ffffffffffffffffffffffffffffffffffffffff1661197b83610dcf565b73ffffffffffffffffffffffffffffffffffffffff16145b5b90509392505050565b5f73ffffffffffffffffffffffffffffffffffffffff168273ffffffffffffffffffffffffffffffffffffffff1603611a0d575f6040517f64a0ae92000000000000000000000000000000000000000000000000000000008152600401611a049190611ce0565b60405180910390fd5b5f611a1983835f610e21565b90505f73ffffffffffffffffffffffffffffffffffffffff168173ffffffffffffffffffffffffffffffffffffffff1614611a8b575f6040517f73c6ac6e000000000000000000000000000000000000000000000000000000008152600401611a829190611ce0565b60405180910390fd5b505050565b6040518060a0016040528060608152602001606081526020015f80191681526020015f73ffffffffffffffffffffffffffffffffffffffff1681526020015f81525090565b5f604051905090565b5f80fd5b5f80fd5b5f7fffffffff0000000000000000000000000000000000000000000000000000000082169050919050565b611b1a81611ae6565b8114611b24575f80fd5b50565b5f81359050611b3581611b11565b92915050565b5f60208284031215611b5057611b4f611ade565b5b5f611b5d84828501611b27565b91505092915050565b5f8115159050919050565b611b7a81611b66565b82525050565b5f602082019050611b935f830184611b71565b92915050565b5f81519050919050565b5f82825260208201905092915050565b5f5b83811015611bd0578082015181840152602081019050611bb5565b5f8484015250505050565b5f601f19601f8301169050919050565b5f611bf582611b99565b611bff8185611ba3565b9350611c0f818560208601611bb3565b611c1881611bdb565b840191505092915050565b5f6020820190508181035f830152611c3b8184611beb565b905092915050565b5f819050919050565b611c5581611c43565b8114611c5f575f80fd5b50565b5f81359050611c7081611c4c565b92915050565b5f60208284031215611c8b57611c8a611ade565b5b5f611c9884828501611c62565b91505092915050565b5f73ffffffffffffffffffffffffffffffffffffffff82169050919050565b5f611cca82611ca1565b9050919050565b611cda81611cc0565b82525050565b5f602082019050611cf35f830184611cd1565b92915050565b611d0281611cc0565b8114611d0c575f80fd5b50565b5f81359050611d1d81611cf9565b92915050565b5f8060408385031215611d3957611d38611ade565b5b5f611d4685828601611d0f565b9250506020611d5785828601611c62565b9150509250929050565b5f805f60608486031215611d7857611d77611ade565b5b5f611d8586828701611d0f565b9350506020611d9686828701611d0f565b9250506040611da786828701611c62565b9150509250925092565b5f60208284031215611dc657611dc5611ade565b5b5f611dd384828501611d0f565b91505092915050565b611de581611c43565b82525050565b5f602082019050611dfe5f830184611ddc565b92915050565b5f80fd5b5f80fd5b7f4e487b71000000000000000000000000000000000000000000000000000000005f52604160045260245ffd5b611e4282611bdb565b810181811067ffffffffffffffff82111715611e6157611e60611e0c565b5b80604052505050565b5f611e73611ad5565b9050611e7f8282611e39565b919050565b5f67ffffffffffffffff821115611e9e57611e9d611e0c565b5b611ea782611bdb565b9050602081019050919050565b828183375f83830152505050565b5f611ed4611ecf84611e84565b611e6a565b905082815260208101848484011115611ef057611eef611e08565b5b611efb848285611eb4565b509392505050565b5f82601f830112611f1757611f16611e04565b5b8135611f27848260208601611ec2565b91505092915050565b5f819050919050565b611f4281611f30565b8114611f4c575f80fd5b50565b5f81359050611f5d81611f39565b92915050565b5f805f60608486031215611f7a57611f79611ade565b5b5f84013567ffffffffffffffff811115611f9757611f96611ae2565b5b611fa386828701611f03565b935050602084013567ffffffffffffffff811115611fc457611fc3611ae2565b5b611fd086828701611f03565b9250506040611fe186828701611f4f565b9150509250925092565b5f806040838503121561200157612000611ade565b5b5f61200e85828601611c62565b925050602061201f85828601611f4f565b9150509250929050565b5f60408201905061203c5f830185611b71565b818103602083015261204e8184611beb565b90509392505050565b61206081611b66565b811461206a575f80fd5b50565b5f8135905061207b81612057565b92915050565b5f806040838503121561209757612096611ade565b5b5f6120a485828601611d0f565b92505060206120b58582860161206d565b9150509250929050565b5f67ffffffffffffffff8211156120d9576120d8611e0c565b5b6120e282611bdb565b9050602081019050919050565b5f6121016120fc846120bf565b611e6a565b90508281526020810184848401111561211d5761211c611e08565b5b612128848285611eb4565b509392505050565b5f82601f83011261214457612143611e04565b5b81356121548482602086016120ef565b91505092915050565b5f805f806080858703121561217557612174611ade565b5b5f61218287828801611d0f565b945050602061219387828801611d0f565b93505060406121a487828801611c62565b925050606085013567ffffffffffffffff8111156121c5576121c4611ae2565b5b6121d187828801612130565b91505092959194509250565b5f80604083850312156121f3576121f2611ade565b5b5f61220085828601611d0f565b925050602061221185828601611d0f565b9150509250929050565b5f82825260208201905092915050565b5f61223582611b99565b61223f818561221b565b935061224f818560208601611bb3565b61225881611bdb565b840191505092915050565b61226c81611f30565b82525050565b61227b81611cc0565b82525050565b61228a81611c43565b82525050565b5f60a083015f8301518482035f8601526122aa828261222b565b915050602083015184820360208601526122c4828261222b565b91505060408301516122d96040860182612263565b5060608301516122ec6060860182612272565b5060808301516122ff6080860182612281565b508091505092915050565b5f6020820190508181035f8301526123228184612290565b905092915050565b7f4e487b71000000000000000000000000000000000000000000000000000000005f52602260045260245ffd5b5f600282049050600182168061236e57607f821691505b6020821081036123815761238061232a565b5b50919050565b5f60608201905061239a5f830186611cd1565b6123a76020830185611ddc565b6123b46040830184611cd1565b949350505050565b7f4861736820616c726561647920726567697374657265640000000000000000005f82015250565b5f6123f0601783611ba3565b91506123fb826123bc565b602082019050919050565b5f6020820190508181035f83015261241d816123e4565b9050919050565b7f4e487b71000000000000000000000000000000000000000000000000000000005f52601160045260245ffd5b5f61245b82611c43565b91507fffffffffffffffffffffffffffffffffffffffffffffffffffffffffffffffff820361248d5761248c612424565b5b600182019050919050565b5f819050815f5260205f209050919050565b5f6020601f8301049050919050565b5f82821b905092915050565b5f600883026124f47fffffffffffffffffffffffffffffffffffffffffffffffffffffffffffffffff826124b9565b6124fe86836124b9565b95508019841693508086168417925050509392505050565b5f819050919050565b5f61253961253461252f84611c43565b612516565b611c43565b9050919050565b5f819050919050565b6125528361251f565b61256661255e82612540565b8484546124c5565b825550505050565b5f90565b61257a61256e565b612585818484612549565b505050565b5b818110156125a85761259d5f82612572565b60018101905061258b565b5050565b601f8211156125ed576125be81612498565b6125c7846124aa565b810160208510156125d6578190505b6125ea6125e2856124aa565b83018261258a565b50505b505050565b5f82821c905092915050565b5f61260d5f19846008026125f2565b1980831691505092915050565b5f61262583836125fe565b9150826002028217905092915050565b61263e82611b99565b67ffffffffffffffff81111561265757612656611e0c565b5b6126618254612357565b61266c8282856125ac565b5f60209050601f83116001811461269d575f841561268b578287015190505b612695858261261a565b8655506126fc565b601f1984166126ab86612498565b5f5b828110156126d2578489015182556001820191506020850194506020810190506126ad565b868310156126ef57848901516126eb601f8916826125fe565b8355505b6001600288020188555050505b505050505050565b61270d81611f30565b82525050565b5f6060820190508181035f83015261272b8186611beb565b905061273a6020830185612704565b6127476040830184611cd1565b949350505050565b5f81905092915050565b5f61276382611b99565b61276d818561274f565b935061277d818560208601611bb3565b80840191505092915050565b5f6127948285612759565b91506127a08284612759565b91508190509392505050565b5f81519050919050565b5f82825260208201905092915050565b5f6127d0826127ac565b6127da81856127b6565b93506127ea818560208601611bb3565b6127f381611bdb565b840191505092915050565b5f6080820190506128115f830187611cd1565b61281e6020830186611cd1565b61282b6040830185611ddc565b818103606083015261283d81846127c6565b905095945050505050565b5f8151905061285681611b11565b92915050565b5f6020828403121561287157612870611ade565b5b5f61287e84828501612848565b91505092915050565b7f4e487b71000000000000000000000000000000000000000000000000000000005f52601260045260245ffd5b5f6040820190506128c75f830185611cd1565b6128d46020830184611ddc565b939250505056fea264697066735822122030888dd635192c4b073fce18c8728695fec96b640d66a01b2e548661a07380bc64736f6c63430008180033",
  "linkReferences": {},
  "deployedLinkReferences": {}
}