{
  "_format": "hh-sol-artifact-1",
  "contractName": "ALUAssetRegistry",
  "sourceName": "contracts/ALUAssetRegistry.sol",
  "abi": [
    {
      "inputs": [],
      "stateMutability": "nonpayable",
      "type": "constructor"
    },
    {
      "inputs": [
        {
          "internalType": "address",
          "name": "sender",
          "type": "address"
        },
        {
          "internalType": "uint256",
          "name": "tokenId",
          "type": "uint256"
        },
        {
          "internalType": "address",
          "name": "owner",
          "type": "address"
        }
      ],
      "name": "ERC721IncorrectOwner",
      "type": "error"
    },
    {
      "inputs": [
        {
          "internalType": "address",
          "name": "operator",
          "type": "address"
        },
        {
          "internalType": "uint256",
          "name": "tokenId",
          "type": "uint256"
        }
      ],
      "name": "ERC721InsufficientApproval",
      "type": "error"
    },
    {
      "inputs": [
        {
          "internalType": "address",
          "name": "approver",
          "type": "address"
        }
      ],
      "name": "ERC721InvalidApprover",
      "type": "error"
    },
    {
      "inputs": [
        {
          "internalType": "address",
          "name": "operator",
          "type": "address"
        }
      ],
      "name": "ERC721InvalidOperator",
      "type": "error"
    },
    {
      "inputs": [
        {
          "internalType": "address",
          "name": "owner",
          "type": "address"
        }
      ],
      "name": "ERC721InvalidOwner",
      "type": "error"
    },
    {
      "inputs": [
        {
          "internalType": "address",
          "name": "receiver",
          "type": "address"
        }
      ],
      "name": "ERC721InvalidReceiver",
      "type": "error"
    },
    {
      "inputs": [
        {
          "internalType": "address",
          "name": "sender",
          "type": "address"
        }
      ],
      "name": "ERC721InvalidSender",
      "type": "error"
    },
    {
      "inputs": [
        {
          "internalType": "uint256",
          "name": "tokenId",
          "type": "uint256"
        }
      ],
      "name": "ERC721NonexistentToken",
      "type": "error"
    },
    {
      "anonymous": false,
      "inputs": [
        {
          "indexed": true,
          "internalType": "address",
          "name": "owner",
          "type": "address"
        },
        {
          "indexed": true,
          "internalType": "address",
          "name": "approved",
          "type": "address"
        },
        {
          "indexed": true,
          "internalType": "uint256",
          "name": "tokenId",
          "type": "uint256"
        }
      ],
      "name": "Approval",
      "type": "event"
    },
    {
      "anonymous": false,
      "inputs": [
        {
          "indexed": true,
          "internalType": "address",
          "name": "owner",
          "type": "address"
        },
        {
          "indexed": true,
          "internalType": "address",
          "name": "operator",
          "type": "address"
        },
        {
          "indexed": false,
          "internalType": "bool",
          "name": "approved",
          "type": "bool"
        }
      ],
      "name": "ApprovalForAll",
      "type": "event"
    },
    {
      "anonymous": false,
      "inputs": [
        {
          "indexed": true,
          "internalType": "uint256",
          "name": "tokenId",
          "type": "uint256"
        },
        {
          "indexed": false,
          "internalType": "string",
          "name": "name",
          "type": "string"
        },
        {
          "indexed": false,
          "internalType": "bytes32",
          "name": "contentHash",
          "type": "bytes32"
        },
        {
          "indexed": false,
          "internalType": "address",
          "name": "registrant",
          "type": "address"
        }
      ],
      "name": "AssetRegistered",
      "type": "event"
    },
    {
      "anonymous": false,
      "inputs": [
        {
          "indexed": true,
          "internalType": "address",
          "name": "from",
          "type": "address"
        },
        {
          "indexed": true,
          "internalType": "address",
          "name": "to",
          "type": "address"
        },
        {
          "indexed": true,
          "internalType": "uint256",
          "name": "tokenId",
          "type": "uint256"
        }
      ],
      "name": "Transfer",
      "type": "event"
    },
    {
      "inputs": [
        {
          "internalType": "address",
          "name": "to",
          "type": "address"
        },
        {
          "internalType": "uint256",
          "name": "tokenId",
          "type": "uint256"
        }
      ],
      "name": "approve",
      "outputs": [],
      "stateMutability": "nonpayable",
      "type": "function"
    },
    {
      "inputs": [
        {
          "internalType": "address",
          "name": "owner",
          "type": "address"
        }
      ],
      "name": "balanceOf",
      "outputs": [
        {
          "internalType": "uint256",
          "name": "",
          "type": "uint256"
        }
      ],
      "stateMutability": "view",
      "type": "function"
    },
    {
      "inputs": [
        {
          "internalType": "uint256",
          "name": "tokenId",
          "type": "uint256"
        }
      ],
      "name": "getApproved",
      "outputs": [
        {
          "internalType": "address",
          "name": "",
          "type": "address"
        }
      ],
      "stateMutability": "view",
      "type": "function"
    },
    {
      "inputs": [
        {
          "internalType": "uint256",
          "name": "_tokenId",
          "type": "uint256"
        }
      ],
      "name": "getAsset",
      "outputs": [
        {
          "components": [
            {
              "internalType": "string",
              "name": "name",
              "type": "string"
            },
            {
              "internalType": "string",
              "name": "fileType",
              "type": "string"
            },
            {
              "internalType": "bytes32",
              "name": "contentHash",
              "type": "bytes32"
            },
            {
              "internalType": "address",
              "name": "registrant",
              "type": "address"
            },
            {
              "internalType": "uint256",
              "name": "timestamp",
              "type": "uint256"
            }
          ],
          "internalType": "struct ALUAssetRegistry.AssetMetadata",
          "name": "",
          "type": "tuple"
        }
      ],
      "stateMutability": "view",
      "type": "function"
    },
    {
      "inputs": [
        {
          "internalType": "address",
          "name": "owner",
          "type": "address"
        },
        {
          "internalType": "address",
          "name": "operator",
          "type": "address"
        }
      ],
      "name": "isApprovedForAll",
      "outputs": [
        {
          "internalType": "bool",
          "name": "",
          "type": "bool"
        }
      ],
      "stateMutability": "view",
      "type": "function"
    },
    {
      "inputs": [],
      "name": "name",
      "outputs": [
        {
          "internalType": "string",
          "name": "",
          "type": "string"
        }
      ],
      "stateMutability": "view",
      "type": "function"
    },
    {
      "inputs": [
        {
          "internalType": "uint256",
          "name": "tokenId",
          "type": "uint256"
        }
      ],
      "name": "ownerOf",
      "outputs": [
        {
          "internalType": "address",
          "name": "",
          "type": "address"
        }
      ],
      "stateMutability": "view",
      "type": "function"
    },
    {
      "inputs": [
        {
          "internalType": "string",
          "name": "_name",
          "type": "string"
        },
        {
          "internalType": "string",
          "name": "_fileType",
          "type": "string"
        },
        {
          "internalType": "bytes32",
          "name": "_contentHash",
          "type": "bytes32"
        }
      ],
      "name": "registerAsset",
      "outputs": [
        {
          "internalType": "uint256",
          "name": "",
          "type": "uint256"
        }
      ],
      "stateMutability": "nonpayable",
      "type": "function"
    },
    {
      "inputs": [
        {
          "internalType": "address",
          "name": "from",
          "type": "address"
        },
        {
          "internalType": "address",
          "name": "to",
          "type": "address"
        },
        {
          "internalType": "uint256",
          "name": "tokenId",
          "type": "uint256"
        }
      ],
      "name": "safeTransferFrom",
      "outputs": [],
      "stateMutability": "nonpayable",
      "type": "function"
    },
    {
      "inputs": [
        {
          "internalType": "address",
          "name": "from",
          "type": "address"
        },
        {
          "internalType": "address",
          "name": "to",
          "type": "address"
        },
        {
          "internalType": "uint256",
          "name": "tokenId",
          "type": "uint256"
        },
        {
          "internalType": "bytes",
          "name": "data",
          "type": "bytes"
        }
      ],
      "name": "safeTransferFrom",
      "outputs": [],
      "stateMutability": "nonpayable",
      "type": "function"
    },
    {
      "inputs": [
        {
          "internalType": "address",
          "name": "operator",
          "type": "address"
        },
        {
          "internalType": "bool",
          "name": "approved",
          "type": "bool"
        }
      ],
      "name": "setApprovalForAll",
      "outputs": [],
      "stateMutability": "nonpayable",
      "type": "function"
    },
    {
      "inputs": [
        {
          "internalType": "bytes4",
          "name": "interfaceId",
          "type": "bytes4"
        }
      ],
      "name": "supportsInterface",
      "outputs": [
        {
          "internalType": "bool",
          "name": "",
          "type": "bool"
        }
      ],
      "stateMutability": "view",
      "type": "function"
    },
    {
      "inputs": [],
      "name": "symbol",
      "outputs": [
        {
          "internalType": "string",
          "name": "",
          "type": "string"
        }
      ],
      "stateMutability": "view",
      "type": "function"
    },
    {
      "inputs": [
        {
          "internalType": "uint256",
          "name": "tokenId",
          "type": "uint256"
        }
      ],
      "name": "tokenURI",
      "outputs": [
        {
          "internalType": "string",
          "name": "",
          "type": "string"
        }
      ],
      "stateMutability": "view",
      "type": "function"
    },
    {
      "inputs": [
        {
          "internalType": "address",
          "name": "from",
          "type": "address"
        },
        {
          "internalType": "address",
          "name": "to",
          "type": "address"
        },
        {
          "internalType": "uint256",
          "name": "tokenId",
          "type": "uint256"
        }
      ],
      "name": "transferFrom",
      "outputs": [],
      "stateMutability": "nonpayable",
      "type": "function"
    },
    {
      "inputs": [
        {
          "internalType": "uint256",
          "name": "_tokenId",
          "type": "uint256"
        },
        {
          "internalType": "bytes32",
          "name": "_contentHash",
          "type": "bytes32"
        }
      ],
      "name": "verifyLogoIntegrity",
      "outputs": [
        {
          "internalType": "bool",
          "name": "",
          "type": "bool"
        },
        {
          "internalType": "string",
          "name": "",
          "type": "string"
        }
      ],
      "stateMutability": "view",
      "type": "function"
    }
  ],
  "bytecode": "0x608060405234801561000f575f5ffd5b506040518060400160405280601281526020017f414c5520417373657420526567697374727900000000000000000000000000008152506040518060400160405280600581526020017f414c554152000000000000000000000000000000000000000000000000000000815250815f908161008a91906102df565b50806001908161009a91906102df565b5050506103ae565b5f81519050919050565b7f4e487b71000000000000000000000000000000000000000000000000000000005f52604160045260245ffd5b7f4e487b71000000000000000000000000000000000000000000000000000000005f52602260045260245ffd5b5f600282049050600182168061011d57607f821691505b6020821081036101305761012f6100d9565b5b50919050565b5f819050815f5260205f209050919050565b5f6020601f8301049050919050565b5f82821b905092915050565b5f600883026101927fffffffffffffffffffffffffffffffffffffffffffffffffffffffffffffffff82610157565b61019c8683610157565b95508019841693508086168417925050509392505050565b5f819050919050565b5f819050919050565b5f6101e06101db6101d6846101b4565b6101bd565b6101b4565b9050919050565b5f819050919050565b6101f9836101c6565b61020d610205826101e7565b848454610163565b825550505050565b5f5f905090565b610224610215565b61022f8184846101f0565b505050565b5b81811015610252576102475f8261021c565b600181019050610235565b5050565b601f8211156102975761026881610136565b61027184610148565b81016020851015610280578190505b61029461028c85610148565b830182610234565b50505b505050565b5f82821c905092915050565b5f6102b75f198460080261029c565b1980831691505092915050565b5f6102cf83836102a8565b9150826002028217905092915050565b6102e8826100a2565b67ffffffffffffffff811115610301576103006100ac565b5b61030b8254610106565b610316828285610256565b5f60209050601f831160018114610347575f8415610335578287015190505b61033f85826102c4565b8655506103a6565b601f19841661035586610136565b5f5b8281101561037c57848901518255600182019150602085019450602081019050610357565b868310156103995784890151610395601f8916826102a8565b8355505b6001600288020188555050505b505050505050565b6128f7806103bb5f395ff3fe608060405234801561000f575f5ffd5b50600436106100fe575f3560e01c80638802a54111610095578063b88d4fde11610064578063b88d4fde146102cf578063c87b56dd146102eb578063e985e9c51461031b578063eac8f5b81461034b576100fe565b80638802a5411461023457806395d89b411461026457806397e430ee14610282578063a22cb465146102b3576100fe565b806323b872dd116100d157806323b872dd1461019c57806342842e0e146101b85780636352211e146101d457806370a0823114610204576100fe565b806301ffc9a71461010257806306fdde0314610132578063081812fc14610150578063095ea7b314610180575b5f5ffd5b61011c60048036038101906101179190611b38565b61037b565b6040516101299190611b7d565b60405180910390f35b61013a61045c565b6040516101479190611c06565b60405180910390f35b61016a60048036038101906101659190611c59565b6104eb565b6040516101779190611cc3565b60405180910390f35b61019a60048036038101906101959190611d06565b610506565b005b6101b660048036038101906101b19190611d44565b61051c565b005b6101d260048036038101906101cd9190611d44565b61061b565b005b6101ee60048036038101906101e99190611c59565b61063a565b6040516101fb9190611cc3565b60405180910390f35b61021e60048036038101906102199190611d94565b61064b565b60405161022b9190611dce565b60405180910390f35b61024e60048036038101906102499190611f46565b610701565b60405161025b9190611dce565b60405180910390f35b61026c6108cc565b6040516102799190611c06565b60405180910390f35b61029c60048036038101906102979190611fce565b61095c565b6040516102aa92919061200c565b60405180910390f35b6102cd60048036038101906102c89190612064565b6109fe565b005b6102e960048036038101906102e49190612140565b610a14565b005b61030560048036038101906103009190611c59565b610a39565b6040516103129190611c06565b60405180910390f35b610335600480360381019061033091906121c0565b610a9f565b6040516103429190611b7d565b60405180910390f35b61036560048036038101906103609190611c59565b610b2d565b60405161037291906122ed565b60405180910390f35b5f7f80ac58cd000000000000000000000000000000000000000000000000000000007bffffffffffffffffffffffffffffffffffffffffffffffffffffffff1916827bffffffffffffffffffffffffffffffffffffffffffffffffffffffff1916148061044557507f5b5e139f000000000000000000000000000000000000000000000000000000007bffffffffffffffffffffffffffffffffffffffffffffffffffffffff1916827bffffffffffffffffffffffffffffffffffffffffffffffffffffffff1916145b80610455575061045482610ce0565b5b9050919050565b60605f805461046a9061233a565b80601f01602080910402602001604051908101604052809291908181526020018280546104969061233a565b80156104e15780601f106104b8576101008083540402835291602001916104e1565b820191905f5260205f20905b8154815290600101906020018083116104c457829003601f168201915b5050505050905090565b5f6104f582610d49565b506104ff82610dcf565b9050919050565b6105188282610513610e08565b610e0f565b5050565b5f73ffffffffffffffffffffffffffffffffffffffff168273ffffffffffffffffffffffffffffffffffffffff160361058c575f6040517f64a0ae920000000000000000000000000000000000000000000000000000000081526004016105839190611cc3565b60405180910390fd5b5f61059f838361059a610e08565b610e21565b90508373ffffffffffffffffffffffffffffffffffffffff168173ffffffffffffffffffffffffffffffffffffffff1614610615578382826040517f64283d7b00000000000000000000000000000000000000000000000000000000815260040161060c9392919061236a565b60405180910390fd5b50505050565b61063583838360405180602001604052805f815250610a14565b505050565b5f61064482610d49565b9050919050565b5f5f73ffffffffffffffffffffffffffffffffffffffff168273ffffffffffffffffffffffffffffffffffffffff16036106bc575f6040517f89c62b640000000000000000000000000000000000000000000000000000000081526004016106b39190611cc3565b60405180910390fd5b60035f8373ffffffffffffffffffffffffffffffffffffffff1673ffffffffffffffffffffffffffffffffffffffff1681526020019081526020015f20549050919050565b5f60085f8381526020019081526020015f205f9054906101000a900460ff1615610760576040517f08c379a0000000000000000000000000000000000000000000000000000000008152600401610757906123e9565b60405180910390fd5b5f600654905060065f81548092919061077890612434565b9190505550610787338261102c565b6040518060a001604052808681526020018581526020018481526020013373ffffffffffffffffffffffffffffffffffffffff1681526020014281525060075f8381526020019081526020015f205f820151815f0190816107e8919061261b565b5060208201518160010190816107fe919061261b565b50604082015181600201556060820151816003015f6101000a81548173ffffffffffffffffffffffffffffffffffffffff021916908373ffffffffffffffffffffffffffffffffffffffff16021790555060808201518160040155905050600160085f8581526020019081526020015f205f6101000a81548160ff021916908315150217905550807fe91b35acb617d4d94bebfb32d4c22892b6c01053999d98f62787ba481c2e91808685336040516108b9939291906126f9565b60405180910390a2809150509392505050565b6060600180546108db9061233a565b80601f01602080910402602001604051908101604052809291908181526020018280546109079061233a565b80156109525780601f1061092957610100808354040283529160200191610952565b820191905f5260205f20905b81548152906001019060200180831161093557829003601f168201915b5050505050905090565b5f60608260075f8681526020019081526020015f2060020154036109bb5760016040518060400160405280601281526020017f4c6f676f2069732061757468656e7469632e0000000000000000000000000000815250915091506109f7565b5f6040518060400160405280601d81526020017f5761726e696e673a206c6f676f20646f6573206e6f74206d617463682e000000815250915091505b9250929050565b610a10610a09610e08565b8383611049565b5050565b610a1f84848461051c565b610a33610a2a610e08565b85858585611222565b50505050565b6060610a4482610d49565b505f610a4e6113ce565b90505f815111610a6c5760405180602001604052805f815250610a97565b80610a76846113e4565b604051602001610a8792919061276f565b6040516020818303038152906040525b915050919050565b5f60055f8473ffffffffffffffffffffffffffffffffffffffff1673ffffffffffffffffffffffffffffffffffffffff1681526020019081526020015f205f8373ffffffffffffffffffffffffffffffffffffffff1673ffffffffffffffffffffffffffffffffffffffff1681526020019081526020015f205f9054906101000a900460ff16905092915050565b610b35611a90565b60075f8381526020019081526020015f206040518060a00160405290815f82018054610b609061233a565b80601f0160208091040260200160405190810160405280929190818152602001828054610b8c9061233a565b8015610bd75780601f10610bae57610100808354040283529160200191610bd7565b820191905f5260205f20905b815481529060010190602001808311610bba57829003601f168201915b50505050508152602001600182018054610bf09061233a565b80601f0160208091040260200160405190810160405280929190818152602001828054610c1c9061233a565b8015610c675780601f10610c3e57610100808354040283529160200191610c67565b820191905f5260205f20905b815481529060010190602001808311610c4a57829003601f168201915b5050505050815260200160028201548152602001600382015f9054906101000a900473ffffffffffffffffffffffffffffffffffffffff1673ffffffffffffffffffffffffffffffffffffffff1673ffffffffffffffffffffffffffffffffffffffff1681526020016004820154815250509050919050565b5f7f01ffc9a7000000000000000000000000000000000000000000000000000000007bffffffffffffffffffffffffffffffffffffffffffffffffffffffff1916827bffffffffffffffffffffffffffffffffffffffffffffffffffffffff1916149050919050565b5f5f610d54836114ae565b90505f73ffffffffffffffffffffffffffffffffffffffff168173ffffffffffffffffffffffffffffffffffffffff1603610dc657826040517f7e273289000000000000000000000000000000000000000000000000000000008152600401610dbd9190611dce565b60405180910390fd5b80915050919050565b5f60045f8381526020019081526020015f205f9054906101000a900473ffffffffffffffffffffffffffffffffffffffff169050919050565b5f33905090565b610e1c83838360016114e7565b505050565b5f5f610e2c846114ae565b90505f73ffffffffffffffffffffffffffffffffffffffff168373ffffffffffffffffffffffffffffffffffffffff1614610e6d57610e6c8184866116a6565b5b5f73ffffffffffffffffffffffffffffffffffffffff168173ffffffffffffffffffffffffffffffffffffffff1614610ef857610eac5f855f5f6114e7565b600160035f8373ffffffffffffffffffffffffffffffffffffffff1673ffffffffffffffffffffffffffffffffffffffff1681526020019081526020015f205f82825403925050819055505b5f73ffffffffffffffffffffffffffffffffffffffff168573ffffffffffffffffffffffffffffffffffffffff1614610f7757600160035f8773ffffffffffffffffffffffffffffffffffffffff1673ffffffffffffffffffffffffffffffffffffffff1681526020019081526020015f205f82825401925050819055505b8460025f8681526020019081526020015f205f6101000a81548173ffffffffffffffffffffffffffffffffffffffff021916908373ffffffffffffffffffffffffffffffffffffffff160217905550838573ffffffffffffffffffffffffffffffffffffffff168273ffffffffffffffffffffffffffffffffffffffff167fddf252ad1be2c89b69c2b068fc378daa952ba7f163c4a11628f55a4df523b3ef60405160405180910390a4809150509392505050565b611045828260405180602001604052805f815250611769565b5050565b5f73ffffffffffffffffffffffffffffffffffffffff168373ffffffffffffffffffffffffffffffffffffffff16036110b9575f6040517fa9fbf51f0000000000000000000000000000000000000000000000000000000081526004016110b09190611cc3565b60405180910390fd5b5f73ffffffffffffffffffffffffffffffffffffffff168273ffffffffffffffffffffffffffffffffffffffff160361112957816040517f5b08ba180000000000000000000000000000000000000000000000000000000081526004016111209190611cc3565b60405180910390fd5b8060055f8573ffffffffffffffffffffffffffffffffffffffff1673ffffffffffffffffffffffffffffffffffffffff1681526020019081526020015f205f8473ffffffffffffffffffffffffffffffffffffffff1673ffffffffffffffffffffffffffffffffffffffff1681526020019081526020015f205f6101000a81548160ff0219169083151502179055508173ffffffffffffffffffffffffffffffffffffffff168373ffffffffffffffffffffffffffffffffffffffff167f17307eab39ab6107e8899845ad3d59bd9653f200f220920489ca2b5937696c31836040516112159190611b7d565b60405180910390a3505050565b5f8373ffffffffffffffffffffffffffffffffffffffff163b11156113c7578273ffffffffffffffffffffffffffffffffffffffff1663150b7a02868685856040518563ffffffff1660e01b815260040161128094939291906127e4565b6020604051808303815f875af19250505080156112bb57506040513d601f19601f820116820180604052508101906112b89190612842565b60015b61133c573d805f81146112e9576040519150601f19603f3d011682016040523d82523d5f602084013e6112ee565b606091505b505f81510361133457836040517f64a0ae9200000000000000000000000000000000000000000000000000000000815260040161132b9190611cc3565b60405180910390fd5b805160208201fd5b63150b7a0260e01b7bffffffffffffffffffffffffffffffffffffffffffffffffffffffff1916817bffffffffffffffffffffffffffffffffffffffffffffffffffffffff1916146113c557836040517f64a0ae920000000000000000000000000000000000000000000000000000000081526004016113bc9190611cc3565b60405180910390fd5b505b5050505050565b606060405180602001604052805f815250905090565b60605f60016113f28461178c565b0190505f8167ffffffffffffffff8111156114105761140f611def565b5b6040519080825280601f01601f1916602001820160405280156114425781602001600182028036833780820191505090505b5090505f82602083010190505b6001156114a3578080600190039150507f3031323334353637383961626364656600000000000000000000000000000000600a86061a8153600a85816114985761149761286d565b5b0494505f850361144f575b819350505050919050565b5f60025f8381526020019081526020015f205f9054906101000a900473ffffffffffffffffffffffffffffffffffffffff169050919050565b808061151f57505f73ffffffffffffffffffffffffffffffffffffffff168273ffffffffffffffffffffffffffffffffffffffff1614155b15611651575f61152e84610d49565b90505f73ffffffffffffffffffffffffffffffffffffffff168373ffffffffffffffffffffffffffffffffffffffff161415801561159857508273ffffffffffffffffffffffffffffffffffffffff168173ffffffffffffffffffffffffffffffffffffffff1614155b80156115ab57506115a98184610a9f565b155b156115ed57826040517fa9fbf51f0000000000000000000000000000000000000000000000000000000081526004016115e49190611cc3565b60405180910390fd5b811561164f57838573ffffffffffffffffffffffffffffffffffffffff168273ffffffffffffffffffffffffffffffffffffffff167f8c5be1e5ebec7d5bd14f71427d1e84f3dd0314c0f7b2291e5b200ac8c7c3b92560405160405180910390a45b505b8360045f8581526020019081526020015f205f6101000a81548173ffffffffffffffffffffffffffffffffffffffff021916908373ffffffffffffffffffffffffffffffffffffffff16021790555050505050565b6116b18383836118dd565b611764575f73ffffffffffffffffffffffffffffffffffffffff168373ffffffffffffffffffffffffffffffffffffffff160361172557806040517f7e27328900000000000000000000000000000000000000000000000000000000815260040161171c9190611dce565b60405180910390fd5b81816040517f177e802f00000000000000000000000000000000000000000000000000000000815260040161175b92919061289a565b60405180910390fd5b505050565b611773838361199d565b61178761177e610e08565b5f858585611222565b505050565b5f5f5f90507a184f03e93ff9f4daa797ed6e38ed64bf6a1f01000000000000000083106117e8577a184f03e93ff9f4daa797ed6e38ed64bf6a1f01000000000000000083816117de576117dd61286d565b5b0492506040810190505b6d04ee2d6d415b85acef81000000008310611825576d04ee2d6d415b85acef8100000000838161181b5761181a61286d565b5b0492506020810190505b662386f26fc10000831061185457662386f26fc10000838161184a5761184961286d565b5b0492506010810190505b6305f5e100831061187d576305f5e10083816118735761187261286d565b5b0492506008810190505b61271083106118a25761271083816118985761189761286d565b5b0492506004810190505b606483106118c557606483816118bb576118ba61286d565b5b0492506002810190505b600a83106118d4576001810190505b80915050919050565b5f5f73ffffffffffffffffffffffffffffffffffffffff168373ffffffffffffffffffffffffffffffffffffffff161415801561199457508273ffffffffffffffffffffffffffffffffffffffff168473ffffffffffffffffffffffffffffffffffffffff16148061195557506119548484610a9f565b5b8061199357508273ffffffffffffffffffffffffffffffffffffffff1661197b83610dcf565b73ffffffffffffffffffffffffffffffffffffffff16145b5b90509392505050565b5f73ffffffffffffffffffffffffffffffffffffffff168273ffffffffffffffffffffffffffffffffffffffff1603611a0d575f6040517f64a0ae92000000000000000000000000000000000000000000000000000000008152600401611a049190611cc3565b60405180910390fd5b5f611a1983835f610e21565b90505f73ffffffffffffffffffffffffffffffffffffffff168173ffffffffffffffffffffffffffffffffffffffff1614611a8b575f6040517f73c6ac6e000000000000000000000000000000000000000000000000000000008152600401611a829190611cc3565b60405180910390fd5b505050565b6040518060a0016040528060608152602001606081526020015f81526020015f73ffffffffffffffffffffffffffffffffffffffff1681526020015f81525090565b5f604051905090565b5f5ffd5b5f5ffd5b5f7fffffffff0000000000000000000000000000000000000000000000000000000082169050919050565b611b1781611ae3565b8114611b21575f5ffd5b50565b5f81359050611b3281611b0e565b92915050565b5f60208284031215611b4d57611b4c611adb565b5b5f611b5a84828501611b24565b91505092915050565b5f8115159050919050565b611b7781611b63565b82525050565b5f602082019050611b905f830184611b6e565b92915050565b5f81519050919050565b5f82825260208201905092915050565b8281835e5f83830152505050565b5f601f19601f8301169050919050565b5f611bd882611b96565b611be28185611ba0565b9350611bf2818560208601611bb0565b611bfb81611bbe565b840191505092915050565b5f6020820190508181035f830152611c1e8184611bce565b905092915050565b5f819050919050565b611c3881611c26565b8114611c42575f5ffd5b50565b5f81359050611c5381611c2f565b92915050565b5f60208284031215611c6e57611c6d611adb565b5b5f611c7b84828501611c45565b91505092915050565b5f73ffffffffffffffffffffffffffffffffffffffff82169050919050565b5f611cad82611c84565b9050919050565b611cbd81611ca3565b82525050565b5f602082019050611cd65f830184611cb4565b92915050565b611ce581611ca3565b8114611cef575f5ffd5b50565b5f81359050611d0081611cdc565b92915050565b5f5f60408385031215611d1c57611d1b611adb565b5b5f611d2985828601611cf2565b9250506020611d3a85828601611c45565b9150509250929050565b5f5f5f60608486031215611d5b57611d5a611adb565b5b5f611d6886828701611cf2565b9350506020611d7986828701611cf2565b9250506040611d8a86828701611c45565b9150509250925092565b5f60208284031215611da957611da8611adb565b5b5f611db684828501611cf2565b91505092915050565b611dc881611c26565b82525050565b5f602082019050611de15f830184611dbf565b92915050565b5f5ffd5b5f5ffd5b7f4e487b71000000000000000000000000000000000000000000000000000000005f52604160045260245ffd5b611e2582611bbe565b810181811067ffffffffffffffff82111715611e4457611e43611def565b5b80604052505050565b5f611e56611ad2565b9050611e628282611e1c565b919050565b5f67ffffffffffffffff821115611e8157611e80611def565b5b611e8a82611bbe565b9050602081019050919050565b828183375f83830152505050565b5f611eb7611eb284611e67565b611e4d565b905082815260208101848484011115611ed357611ed2611deb565b5b611ede848285611e97565b509392505050565b5f82601f830112611efa57611ef9611de7565b5b8135611f0a848260208601611ea5565b91505092915050565b5f819050919050565b611f2581611f13565b8114611f2f575f5ffd5b50565b5f81359050611f4081611f1c565b92915050565b5f5f5f60608486031215611f5d57611f5c611adb565b5b5f84013567ffffffffffffffff811115611f7a57611f79611adf565b5b611f8686828701611ee6565b935050602084013567ffffffffffffffff811115611fa757611fa6611adf565b5b611fb386828701611ee6565b9250506040611fc486828701611f32565b9150509250925092565b5f5f60408385031215611fe457611fe3611adb565b5b5f611ff185828601611c45565b925050602061200285828601611f32565b9150509250929050565b5f60408201905061201f5f830185611b6e565b81810360208301526120318184611bce565b90509392505050565b61204381611b63565b811461204d575f5ffd5b50565b5f8135905061205e8161203a565b92915050565b5f5f6040838503121561207a57612079611adb565b5b5f61208785828601611cf2565b925050602061209885828601612050565b9150509250929050565b5f67ffffffffffffffff8211156120bc576120bb611def565b5b6120c582611bbe565b9050602081019050919050565b5f6120e46120df846120a2565b611e4d565b905082815260208101848484011115612100576120ff611deb565b5b61210b848285611e97565b509392505050565b5f82601f83011261212757612126611de7565b5b81356121378482602086016120d2565b91505092915050565b5f5f5f5f6080858703121561215857612157611adb565b5b5f61216587828801611cf2565b945050602061217687828801611cf2565b935050604061218787828801611c45565b925050606085013567ffffffffffffffff8111156121a8576121a7611adf565b5b6121b487828801612113565b91505092959194509250565b5f5f604083850312156121d6576121d5611adb565b5b5f6121e385828601611cf2565b92505060206121f485828601611cf2565b9150509250929050565b5f82825260208201905092915050565b5f61221882611b96565b61222281856121fe565b9350612232818560208601611bb0565b61223b81611bbe565b840191505092915050565b61224f81611f13565b82525050565b61225e81611ca3565b82525050565b61226d81611c26565b82525050565b5f60a083015f8301518482035f86015261228d828261220e565b915050602083015184820360208601526122a7828261220e565b91505060408301516122bc6040860182612246565b5060608301516122cf6060860182612255565b5060808301516122e26080860182612264565b508091505092915050565b5f6020820190508181035f8301526123058184612273565b905092915050565b7f4e487b71000000000000000000000000000000000000000000000000000000005f52602260045260245ffd5b5f600282049050600182168061235157607f821691505b6020821081036123645761236361230d565b5b50919050565b5f60608201905061237d5f830186611cb4565b61238a6020830185611dbf565b6123976040830184611cb4565b949350505050565b7f4861736820616c726561647920726567697374657265640000000000000000005f82015250565b5f6123d3601783611ba0565b91506123de8261239f565b602082019050919050565b5f6020820190508181035f830152612400816123c7565b9050919050565b7f4e487b71000000000000000000000000000000000000000000000000000000005f52601160045260245ffd5b5f61243e82611c26565b91507fffffffffffffffffffffffffffffffffffffffffffffffffffffffffffffffff82036124705761246f612407565b5b600182019050919050565b5f819050815f5260205f209050919050565b5f6020601f8301049050919050565b5f82821b905092915050565b5f600883026124d77fffffffffffffffffffffffffffffffffffffffffffffffffffffffffffffffff8261249c565b6124e1868361249c565b95508019841693508086168417925050509392505050565b5f819050919050565b5f61251c61251761251284611c26565b6124f9565b611c26565b9050919050565b5f819050919050565b61253583612502565b61254961254182612523565b8484546124a8565b825550505050565b5f5f905090565b612560612551565b61256b81848461252c565b505050565b5b8181101561258e576125835f82612558565b600181019050612571565b5050565b601f8211156125d3576125a48161247b565b6125ad8461248d565b810160208510156125bc578190505b6125d06125c88561248d565b830182612570565b50505b505050565b5f82821c905092915050565b5f6125f35f19846008026125d8565b1980831691505092915050565b5f61260b83836125e4565b9150826002028217905092915050565b61262482611b96565b67ffffffffffffffff81111561263d5761263c611def565b5b612647825461233a565b612652828285612592565b5f60209050601f831160018114612683575f8415612671578287015190505b61267b8582612600565b8655506126e2565b601f1984166126918661247b565b5f5b828110156126b857848901518255600182019150602085019450602081019050612693565b868310156126d557848901516126d1601f8916826125e4565b8355505b6001600288020188555050505b505050505050565b6126f381611f13565b82525050565b5f6060820190508181035f8301526127118186611bce565b905061272060208301856126ea565b61272d6040830184611cb4565b949350505050565b5f81905092915050565b5f61274982611b96565b6127538185612735565b9350612763818560208601611bb0565b80840191505092915050565b5f61277a828561273f565b9150612786828461273f565b91508190509392505050565b5f81519050919050565b5f82825260208201905092915050565b5f6127b682612792565b6127c0818561279c565b93506127d0818560208601611bb0565b6127d981611bbe565b840191505092915050565b5f6080820190506127f75f830187611cb4565b6128046020830186611cb4565b6128116040830185611dbf565b818103606083015261282381846127ac565b905095945050505050565b5f8151905061283c81611b0e565b92915050565b5f6020828403121561285757612856611adb565b5b5f6128648482850161282e565b91505092915050565b7f4e487b71000000000000000000000000000000000000000000000000000000005f52601260045260245ffd5b5f6040820190506128ad5f830185611cb4565b6128ba6020830184611dbf565b939250505056fea2646970667358221220250d6578fb9e0661c674d325693646ce32878e67e28901b0c195d2982c3812c964736f6c634300081c0033",
  "linkReferences": {},
  "deployedLinkReferences": {}
}