{
  "_format": "hh-sol-artifact-1",
  "contractName": "ALULogoToken",
  "sourceName": "contracts/ALULogoToken.sol",
  "abi": [
    {
      "inputs": [
        {
          "internalType": "address",
          "name": "initialOwner",
          "type": "address"
        }
      ],
      "stateMutability": "nonpayable",
      "type": "constructor"
    },
    {
      "inputs": [
        {
          "internalType": "address",
          "name": "spender",
          "type": "address"
        },
        {
          "internalType": "uint256",
          "name": "allowance",
          "type": "uint256"
        },
        {
          "internalType": "uint256",
          "name": "needed",
          "type": "uint256"
        }
      ],
      "name": "ERC20InsufficientAllowance",
      "type": "error"
    },
    {
      "inputs": [
        {
          "internalType": "address",
          "name": "sender",
          "type": "address"
        },
        {
          "internalType": "uint256",
          "name": "balance",
          "type": "uint256"
        },
        {
          "internalType": "uint256",
          "name": "needed",
          "type": "uint256"
        }
      ],
      "name": "ERC20InsufficientBalance",
      "type": "error"
    },
    {
      "inputs": [
        {
          "internalType": "address",
          "name": "approver",
          "type": "address"
        }
      ],
      "name": "ERC20InvalidApprover",
      "type": "error"
    },
    {
      "inputs": [
        {
          "internalType": "address",
          "name": "receiver",
          "type": "address"
        }
      ],
      "name": "ERC20InvalidReceiver",
      "type": "error"
    },
    {
      "inputs": [
        {
          "internalType": "address",
          "name": "sender",
          "type": "address"
        }
      ],
      "name": "ERC20InvalidSender",
      "type": "error"
    },
    {
      "inputs": [
        {
          "internalType": "address",
          "name": "spender",
          "type": "address"
        }
      ],
      "name": "ERC20InvalidSpender",
      "type": "error"
    },
    {
      "inputs": [
        {
          "internalType": "address",
          "name": "owner",
          "type": "address"
        }
      ],
      "name": "OwnableInvalidOwner",
      "type": "error"
    },
    {
      "inputs": [
        {
          "internalType": "address",
          "name": "account",
          "type": "address"
        }
      ],
      "name": "OwnableUnauthorizedAccount",
      "type": "error"
    },
    {
      "anonymous": false,
      "inputs": [
        {
          "indexed": true,
          "internalType": "address",
          "name": "owner",
          "type": "address"
        },
        {
          "indexed": true,
          "internalType": "address",
          "name": "spender",
          "type": "address"
        },
        {
          "indexed": false,
          "internalType": "uint256",
          "name": "value",
          "type": "uint256"
        }
      ],
      "name": "Approval",
      "type": "event"
    },
    {
      "anonymous": false,
      "inputs": [
        {
          "indexed": true,
          "internalType": "address",
          "name": "previousOwner",
          "type": "address"
        },
        {
          "indexed": true,
          "internalType": "address",
          "name": "newOwner",
          "type": "address"
        }
      ],
      "name": "OwnershipTransferred",
      "type": "event"
    },
    {
      "anonymous": false,
      "inputs": [
        {
          "indexed": true,
          "internalType": "address",
          "name": "from",
          "type": "address"
        },
        {
          "indexed": true,
          "internalType": "address",
          "name": "to",
          "type": "address"
        },
        {
          "indexed": false,
          "internalType": "uint256",
          "name": "value",
          "type": "uint256"
        }
      ],
      "name": "Transfer",
      "type": "event"
    },
    {
      "inputs": [
        {
          "internalType": "address",
          "name": "owner",
          "type": "address"
        },
        {
          "internalType": "address",
          "name": "spender",
          "type": "address"
        }
      ],
      "name": "allowance",
      "outputs": [
        {
          "internalType": "uint256",
          "name": "",
          "type": "uint256"
        }
      ],
      "stateMutability": "view",
      "type": "function"
    },
    {
      "inputs": [
        {
          "internalType": "address",
          "name": "spender",
          "type": "address"
        },
        {
          "internalType": "uint256",
          "name": "value",
          "type": "uint256"
        }
      ],
      "name": "approve",
      "outputs": [
        {
          "internalType": "bool",
          "name": "",
          "type": "bool"
        }
      ],
      "stateMutability": "nonpayable",
      "type": "function"
    },
    {
      "inputs": [
        {
          "internalType": "address",
          "name": "account",
          "type": "address"
        }
      ],
      "name": "balanceOf",
      "outputs": [
        {
          "internalType": "uint256",
          "name": "",
          "type": "uint256"
        }
      ],
      "stateMutability": "view",
      "type": "function"
    },
    {
      "inputs": [],
      "name": "decimals",
      "outputs": [
        {
          "internalType": "uint8",
          "name": "",
          "type": "uint8"
        }
      ],
      "stateMutability": "view",
      "type": "function"
    },
    {
      "inputs": [
        {
          "internalType": "address",
          "name": "recipient",
          "type": "address"
        },
        {
          "internalType": "uint256",
          "name": "amount",
          "type": "uint256"
        }
      ],
      "name": "distributeShares",
      "outputs": [],
      "stateMutability": "nonpayable",
      "type": "function"
    },
    {
      "inputs": [],
      "name": "name",
      "outputs": [
        {
          "internalType": "string",
          "name": "",
          "type": "string"
        }
      ],
      "stateMutability": "view",
      "type": "function"
    },
    {
      "inputs": [],
      "name": "owner",
      "outputs": [
        {
          "internalType": "address",
          "name": "",
          "type": "address"
        }
      ],
      "stateMutability": "view",
      "type": "function"
    },
    {
      "inputs": [
        {
          "internalType": "address",
          "name": "wallet",
          "type": "address"
        }
      ],
      "name": "ownershipPercentage",
      "outputs": [
        {
          "internalType": "uint256",
          "name": "",
          "type": "uint256"
        }
      ],
      "stateMutability": "view",
      "type": "function"
    },
    {
      "inputs": [],
      "name": "renounceOwnership",
      "outputs": [],
      "stateMutability": "nonpayable",
      "type": "function"
    },
    {
      "inputs": [],
      "name": "symbol",
      "outputs": [
        {
          "internalType": "string",
          "name": "",
          "type": "string"
        }
      ],
      "stateMutability": "view",
      "type": "function"
    },
    {
      "inputs": [],
      "name": "totalSupply",
      "outputs": [
        {
          "internalType": "uint256",
          "name": "",
          "type": "uint256"
        }
      ],
      "stateMutability": "view",
      "type": "function"
    },
    {
      "inputs": [
        {
          "internalType": "address",
          "name": "to",
          "type": "address"
        },
        {
          "internalType": "uint256",
          "name": "value",
          "type": "uint256"
        }
      ],
      "name": "transfer",
      "outputs": [
        {
          "internalType": "bool",
          "name": "",
          "type": "bool"
        }
      ],
      "stateMutability": "nonpayable",
      "type": "function"
    },
    {
      "inputs": [
        {
          "internalType": "address",
          "name": "from",
          "type": "address"
        },
        {
          "internalType": "address",
          "name": "to",
          "type": "address"
        },
        {
          "internalType": "uint256",
          "name": "value",
          "type": "uint256"
        }
      ],
      "name": "transferFrom",
      "outputs": [
        {
          "internalType": "bool",
          "name": "",
          "type": "bool"
        }
      ],
      "stateMutability": "nonpayable",
      "type": "function"
    },
    {
      "inputs": [
        {
          "internalType": "address",
          "name": "newOwner",
          "type": "address"
        }
      ],
      "name": "transferOwnership",
      "outputs": [],
      "stateMutability": "nonpayable",
      "type": "function"
    }
  ],
  "bytecode": "0x608060405234801561000f575f5ffd5b50604051611db3380380611db383398181016040528101906100319190610549565b806040518060400160405280600e81526020017f414c55204c6f676f20546f6b656e0000000000000000000000000000000000008152506040518060400160405280600481526020017f414c55540000000000000000000000000000000000000000000000000000000081525081600390816100ad91906107b1565b5080600490816100bd91906107b1565b5050505f73ffffffffffffffffffffffffffffffffffffffff168173ffffffffffffffffffffffffffffffffffffffff1603610130575f6040517f1e4fbdf7000000000000000000000000000000000000000000000000000000008152600401610127919061088f565b60405180910390fd5b61013f8161018260201b60201c565b505f61014f61024560201b60201c565b600a61015b9190610a10565b620f42406101699190610a5a565b905061017b828261024d60201b60201c565b5050610b2b565b5f60055f9054906101000a900473ffffffffffffffffffffffffffffffffffffffff1690508160055f6101000a81548173ffffffffffffffffffffffffffffffffffffffff021916908373ffffffffffffffffffffffffffffffffffffffff1602179055508173ffffffffffffffffffffffffffffffffffffffff168173ffffffffffffffffffffffffffffffffffffffff167f8be0079c531659141344cd1fd0a4f28419497f9722a3daafe3b4186f6b6457e060405160405180910390a35050565b5f6012905090565b5f73ffffffffffffffffffffffffffffffffffffffff168273ffffffffffffffffffffffffffffffffffffffff16036102bd575f6040517fec442f050000000000000000000000000000000000000000000000000000000081526004016102b4919061088f565b60405180910390fd5b6102ce5f83836102d260201b60201c565b5050565b5f73ffffffffffffffffffffffffffffffffffffffff168373ffffffffffffffffffffffffffffffffffffffff1603610322578060025f8282546103169190610a9b565b925050819055506103f0565b5f5f5f8573ffffffffffffffffffffffffffffffffffffffff1673ffffffffffffffffffffffffffffffffffffffff1681526020019081526020015f20549050818110156103ab578381836040517fe450d38c0000000000000000000000000000000000000000000000000000000081526004016103a293929190610add565b60405180910390fd5b8181035f5f8673ffffffffffffffffffffffffffffffffffffffff1673ffffffffffffffffffffffffffffffffffffffff1681526020019081526020015f2081905550505b5f73ffffffffffffffffffffffffffffffffffffffff168273ffffffffffffffffffffffffffffffffffffffff1603610437578060025f8282540392505081905550610481565b805f5f8473ffffffffffffffffffffffffffffffffffffffff1673ffffffffffffffffffffffffffffffffffffffff1681526020019081526020015f205f82825401925050819055505b8173ffffffffffffffffffffffffffffffffffffffff168373ffffffffffffffffffffffffffffffffffffffff167fddf252ad1be2c89b69c2b068fc378daa952ba7f163c4a11628f55a4df523b3ef836040516104de9190610b12565b60405180910390a3505050565b5f5ffd5b5f73ffffffffffffffffffffffffffffffffffffffff82169050919050565b5f610518826104ef565b9050919050565b6105288161050e565b8114610532575f5ffd5b50565b5f815190506105438161051f565b92915050565b5f6020828403121561055e5761055d6104eb565b5b5f61056b84828501610535565b91505092915050565b5f81519050919050565b7f4e487b71000000000000000000000000000000000000000000000000000000005f52604160045260245ffd5b7f4e487b71000000000000000000000000000000000000000000000000000000005f52602260045260245ffd5b5f60028204905060018216806105ef57607f821691505b602082108103610602576106016105ab565b5b50919050565b5f819050815f5260205f209050919050565b5f6020601f8301049050919050565b5f82821b905092915050565b5f600883026106647fffffffffffffffffffffffffffffffffffffffffffffffffffffffffffffffff82610629565b61066e8683610629565b95508019841693508086168417925050509392505050565b5f819050919050565b5f819050919050565b5f6106b26106ad6106a884610686565b61068f565b610686565b9050919050565b5f819050919050565b6106cb83610698565b6106df6106d7826106b9565b848454610635565b825550505050565b5f5f905090565b6106f66106e7565b6107018184846106c2565b505050565b5b81811015610724576107195f826106ee565b600181019050610707565b5050565b601f8211156107695761073a81610608565b6107438461061a565b81016020851015610752578190505b61076661075e8561061a565b830182610706565b50505b505050565b5f82821c905092915050565b5f6107895f198460080261076e565b1980831691505092915050565b5f6107a1838361077a565b9150826002028217905092915050565b6107ba82610574565b67ffffffffffffffff8111156107d3576107d261057e565b5b6107dd82546105d8565b6107e8828285610728565b5f60209050601f831160018114610819575f8415610807578287015190505b6108118582610796565b865550610878565b601f19841661082786610608565b5f5b8281101561084e57848901518255600182019150602085019450602081019050610829565b8683101561086b5784890151610867601f89168261077a565b8355505b6001600288020188555050505b505050505050565b6108898161050e565b82525050565b5f6020820190506108a25f830184610880565b92915050565b7f4e487b71000000000000000000000000000000000000000000000000000000005f52601160045260245ffd5b5f8160011c9050919050565b5f5f8291508390505b600185111561092a57808604811115610906576109056108a8565b5b60018516156109155780820291505b8081029050610923856108d5565b94506108ea565b94509492505050565b5f8261094257600190506109fd565b8161094f575f90506109fd565b8160018114610965576002811461096f5761099e565b60019150506109fd565b60ff841115610981576109806108a8565b5b8360020a915084821115610998576109976108a8565b5b506109fd565b5060208310610133831016604e8410600b84101617156109d35782820a9050838111156109ce576109cd6108a8565b5b6109fd565b6109e084848460016108e1565b925090508184048111156109f7576109f66108a8565b5b81810290505b9392505050565b5f60ff82169050919050565b5f610a1a82610686565b9150610a2583610a04565b9250610a527fffffffffffffffffffffffffffffffffffffffffffffffffffffffffffffffff8484610933565b905092915050565b5f610a6482610686565b9150610a6f83610686565b9250828202610a7d81610686565b91508282048414831517610a9457610a936108a8565b5b5092915050565b5f610aa582610686565b9150610ab083610686565b9250828201905080821115610ac857610ac76108a8565b5b92915050565b610ad781610686565b82525050565b5f606082019050610af05f830186610880565b610afd6020830185610ace565b610b0a6040830184610ace565b949350505050565b5f602082019050610b255f830184610ace565b92915050565b61127b80610b385f395ff3fe608060405234801561000f575f5ffd5b50600436106100e8575f3560e01c80638da5cb5b1161008a578063d8dab03311610064578063d8dab0331461024c578063dd62ed3e1461027c578063debcf0e5146102ac578063f2fde38b146102c8576100e8565b80638da5cb5b146101e057806395d89b41146101fe578063a9059cbb1461021c576100e8565b806323b872dd116100c657806323b872dd14610158578063313ce5671461018857806370a08231146101a6578063715018a6146101d6576100e8565b806306fdde03146100ec578063095ea7b31461010a57806318160ddd1461013a575b5f5ffd5b6100f46102e4565b6040516101019190610dee565b60405180910390f35b610124600480360381019061011f9190610e9f565b610374565b6040516101319190610ef7565b60405180910390f35b610142610396565b60405161014f9190610f1f565b60405180910390f35b610172600480360381019061016d9190610f38565b61039f565b60405161017f9190610ef7565b60405180910390f35b6101906103cd565b60405161019d9190610fa3565b60405180910390f35b6101c060048036038101906101bb9190610fbc565b6103d5565b6040516101cd9190610f1f565b60405180910390f35b6101de61041a565b005b6101e861042d565b6040516101f59190610ff6565b60405180910390f35b610206610455565b6040516102139190610dee565b60405180910390f35b61023660048036038101906102319190610e9f565b6104e5565b6040516102439190610ef7565b60405180910390f35b61026660048036038101906102619190610fbc565b610507565b6040516102739190610f1f565b60405180910390f35b6102966004803603810190610291919061100f565b610551565b6040516102a39190610f1f565b60405180910390f35b6102c660048036038101906102c19190610e9f565b6105d3565b005b6102e260048036038101906102dd9190610fbc565b61062c565b005b6060600380546102f39061107a565b80601f016020809104026020016040519081016040528092919081815260200182805461031f9061107a565b801561036a5780601f106103415761010080835404028352916020019161036a565b820191905f5260205f20905b81548152906001019060200180831161034d57829003601f168201915b5050505050905090565b5f5f61037e6106b0565b905061038b8185856106b7565b600191505092915050565b5f600254905090565b5f5f6103a96106b0565b90506103b68582856106c9565b6103c185858561075c565b60019150509392505050565b5f6012905090565b5f5f5f8373ffffffffffffffffffffffffffffffffffffffff1673ffffffffffffffffffffffffffffffffffffffff1681526020019081526020015f20549050919050565b61042261084c565b61042b5f6108d3565b565b5f60055f9054906101000a900473ffffffffffffffffffffffffffffffffffffffff16905090565b6060600480546104649061107a565b80601f01602080910402602001604051908101604052809291908181526020018280546104909061107a565b80156104db5780601f106104b2576101008083540402835291602001916104db565b820191905f5260205f20905b8154815290600101906020018083116104be57829003601f168201915b5050505050905090565b5f5f6104ef6106b0565b90506104fc81858561075c565b600191505092915050565b5f5f610511610396565b90505f8103610523575f91505061054c565b5f61052d846103d5565b90508160648261053d91906110d7565b6105479190611145565b925050505b919050565b5f60015f8473ffffffffffffffffffffffffffffffffffffffff1673ffffffffffffffffffffffffffffffffffffffff1681526020019081526020015f205f8373ffffffffffffffffffffffffffffffffffffffff1673ffffffffffffffffffffffffffffffffffffffff1681526020019081526020015f2054905092915050565b6105db61084c565b5f811161061d576040517f08c379a0000000000000000000000000000000000000000000000000000000008152600401610614906111bf565b60405180910390fd5b61062782826104e5565b505050565b61063461084c565b5f73ffffffffffffffffffffffffffffffffffffffff168173ffffffffffffffffffffffffffffffffffffffff16036106a4575f6040517f1e4fbdf700000000000000000000000000000000000000000000000000000000815260040161069b9190610ff6565b60405180910390fd5b6106ad816108d3565b50565b5f33905090565b6106c48383836001610996565b505050565b5f6106d48484610551565b90507fffffffffffffffffffffffffffffffffffffffffffffffffffffffffffffffff8110156107565781811015610747578281836040517ffb8f41b200000000000000000000000000000000000000000000000000000000815260040161073e939291906111dd565b60405180910390fd5b61075584848484035f610996565b5b50505050565b5f73ffffffffffffffffffffffffffffffffffffffff168373ffffffffffffffffffffffffffffffffffffffff16036107cc575f6040517f96c6fd1e0000000000000000000000000000000000000000000000000000000081526004016107c39190610ff6565b60405180910390fd5b5f73ffffffffffffffffffffffffffffffffffffffff168273ffffffffffffffffffffffffffffffffffffffff160361083c575f6040517fec442f050000000000000000000000000000000000000000000000000000000081526004016108339190610ff6565b60405180910390fd5b610847838383610b65565b505050565b6108546106b0565b73ffffffffffffffffffffffffffffffffffffffff1661087261042d565b73ffffffffffffffffffffffffffffffffffffffff16146108d1576108956106b0565b6040517f118cdaa70000000000000000000000000000000000000000000000000000000081526004016108c89190610ff6565b60405180910390fd5b565b5f60055f9054906101000a900473ffffffffffffffffffffffffffffffffffffffff1690508160055f6101000a81548173ffffffffffffffffffffffffffffffffffffffff021916908373ffffffffffffffffffffffffffffffffffffffff1602179055508173ffffffffffffffffffffffffffffffffffffffff168173ffffffffffffffffffffffffffffffffffffffff167f8be0079c531659141344cd1fd0a4f28419497f9722a3daafe3b4186f6b6457e060405160405180910390a35050565b5f73ffffffffffffffffffffffffffffffffffffffff168473ffffffffffffffffffffffffffffffffffffffff1603610a06575f6040517fe602df050000000000000000000000000000000000000000000000000000000081526004016109fd9190610ff6565b60405180910390fd5b5f73ffffffffffffffffffffffffffffffffffffffff168373ffffffffffffffffffffffffffffffffffffffff1603610a76575f6040517f94280d62000000000000000000000000000000000000000000000000000000008152600401610a6d9190610ff6565b60405180910390fd5b8160015f8673ffffffffffffffffffffffffffffffffffffffff1673ffffffffffffffffffffffffffffffffffffffff1681526020019081526020015f205f8573ffffffffffffffffffffffffffffffffffffffff1673ffffffffffffffffffffffffffffffffffffffff1681526020019081526020015f20819055508015610b5f578273ffffffffffffffffffffffffffffffffffffffff168473ffffffffffffffffffffffffffffffffffffffff167f8c5be1e5ebec7d5bd14f71427d1e84f3dd0314c0f7b2291e5b200ac8c7c3b92584604051610b569190610f1f565b60405180910390a35b50505050565b5f73ffffffffffffffffffffffffffffffffffffffff168373ffffffffffffffffffffffffffffffffffffffff1603610bb5578060025f828254610ba99190611212565b92505081905550610c83565b5f5f5f8573ffffffffffffffffffffffffffffffffffffffff1673ffffffffffffffffffffffffffffffffffffffff1681526020019081526020015f2054905081811015610c3e578381836040517fe450d38c000000000000000000000000000000000000000000000000000000008152600401610c35939291906111dd565b60405180910390fd5b8181035f5f8673ffffffffffffffffffffffffffffffffffffffff1673ffffffffffffffffffffffffffffffffffffffff1681526020019081526020015f2081905550505b5f73ffffffffffffffffffffffffffffffffffffffff168273ffffffffffffffffffffffffffffffffffffffff1603610cca578060025f8282540392505081905550610d14565b805f5f8473ffffffffffffffffffffffffffffffffffffffff1673ffffffffffffffffffffffffffffffffffffffff1681526020019081526020015f205f82825401925050819055505b8173ffffffffffffffffffffffffffffffffffffffff168373ffffffffffffffffffffffffffffffffffffffff167fddf252ad1be2c89b69c2b068fc378daa952ba7f163c4a11628f55a4df523b3ef83604051610d719190610f1f565b60405180910390a3505050565b5f81519050919050565b5f82825260208201905092915050565b8281835e5f83830152505050565b5f601f19601f8301169050919050565b5f610dc082610d7e565b610dca8185610d88565b9350610dda818560208601610d98565b610de381610da6565b840191505092915050565b5f6020820190508181035f830152610e068184610db6565b905092915050565b5f5ffd5b5f73ffffffffffffffffffffffffffffffffffffffff82169050919050565b5f610e3b82610e12565b9050919050565b610e4b81610e31565b8114610e55575f5ffd5b50565b5f81359050610e6681610e42565b92915050565b5f819050919050565b610e7e81610e6c565b8114610e88575f5ffd5b50565b5f81359050610e9981610e75565b92915050565b5f5f60408385031215610eb557610eb4610e0e565b5b5f610ec285828601610e58565b9250506020610ed385828601610e8b565b9150509250929050565b5f8115159050919050565b610ef181610edd565b82525050565b5f602082019050610f0a5f830184610ee8565b92915050565b610f1981610e6c565b82525050565b5f602082019050610f325f830184610f10565b92915050565b5f5f5f60608486031215610f4f57610f4e610e0e565b5b5f610f5c86828701610e58565b9350506020610f6d86828701610e58565b9250506040610f7e86828701610e8b565b9150509250925092565b5f60ff82169050919050565b610f9d81610f88565b82525050565b5f602082019050610fb65f830184610f94565b92915050565b5f60208284031215610fd157610fd0610e0e565b5b5f610fde84828501610e58565b91505092915050565b610ff081610e31565b82525050565b5f6020820190506110095f830184610fe7565b92915050565b5f5f6040838503121561102557611024610e0e565b5b5f61103285828601610e58565b925050602061104385828601610e58565b9150509250929050565b7f4e487b71000000000000000000000000000000000000000000000000000000005f52602260045260245ffd5b5f600282049050600182168061109157607f821691505b6020821081036110a4576110a361104d565b5b50919050565b7f4e487b71000000000000000000000000000000000000000000000000000000005f52601160045260245ffd5b5f6110e182610e6c565b91506110ec83610e6c565b92508282026110fa81610e6c565b91508282048414831517611111576111106110aa565b5b5092915050565b7f4e487b71000000000000000000000000000000000000000000000000000000005f52601260045260245ffd5b5f61114f82610e6c565b915061115a83610e6c565b92508261116a57611169611118565b5b828204905092915050565b7f416d6f756e74206d7573742062652067726561746572207468616e207a65726f5f82015250565b5f6111a9602083610d88565b91506111b482611175565b602082019050919050565b5f6020820190508181035f8301526111d68161119d565b9050919050565b5f6060820190506111f05f830186610fe7565b6111fd6020830185610f10565b61120a6040830184610f10565b949350505050565b5f61121c82610e6c565b915061122783610e6c565b925082820190508082111561123f5761123e6110aa565b5b9291505056fea26469706673582212203b4d2b36aad2c51b248554afdc1cb1bec6da2df5fcb577eadf7d1f3eab7a996d64736f6c634300081c0033",
  "linkReferences": {},
  "deployedLinkReferences": {}
}