{
  "_format": "hh-sol-artifact-1",
  "contractName": "ALULogoToken",
  "sourceName": "contracts/ALULogoToken.sol",
  "abi": [
    {
      "inputs": [
        {
          "internalType": "address",
          "name": "initialOwner",
          "type": "address"
        }
      ],
      "stateMutability": "nonpayable",
      "type": "constructor"
    },
    {
      "inputs": [
        {
          "internalType": "address",
          "name": "spender",
          "type": "address"
        },
        {
          "internalType": "uint256",
          "name": "allowance",
          "type": "uint256"
        },
        {
          "internalType": "uint256",
          "name": "needed",
          "type": "uint256"
        }
      ],
      "name": "ERC20InsufficientAllowance",
      "type": "error"
    },
    {
      "inputs": [
        {
          "internalType": "address",
          "name": "sender",
          "type": "address"
        },
        {
          "internalType": "uint256",
          "name": "balance",
          "type": "uint256"
        },
        {
          "internalType": "uint256",
          "name": "needed",
          "type": "uint256"
        }
      ],
      "name": "ERC20InsufficientBalance",
      "type": "error"
    },
    {
      "inputs": [
        {
          "internalType": "address",
          "name": "approver",
          "type": "address"
        }
      ],
      "name": "ERC20InvalidApprover",
      "type": "error"
    },
    {
      "inputs": [
        {
          "internalType": "address",
          "name": "receiver",
          "type": "address"
        }
      ],
      "name": "ERC20InvalidReceiver",
      "type": "error"
    },
    {
      "inputs": [
        {
          "internalType": "address",
          "name": "sender",
          "type": "address"
        }
      ],
      "name": "ERC20InvalidSender",
      "type": "error"
    },
    {
      "inputs": [
        {
          "internalType": "address",
          "name": "spender",
          "type": "address"
        }
      ],
      "name": "ERC20InvalidSpender",
      "type": "error"
    },
    {
      "inputs": [
        {
          "internalType": "address",
          "name": "owner",
          "type": "address"
        }
      ],
      "name": "OwnableInvalidOwner",
      "type": "error"
    },
    {
      "inputs": [
        {
          "internalType": "address",
          "name": "account",
          "type": "address"
        }
      ],
      "name": "OwnableUnauthorizedAccount",
      "type": "error"
    },
    {
      "anonymous": false,
      "inputs": [
        {
          "indexed": true,
          "internalType": "address",
          "name": "owner",
          "type": "address"
        },
        {
          "indexed": true,
          "internalType": "address",
          "name": "spender",
          "type": "address"
        },
        {
          "indexed": false,
          "internalType": "uint256",
          "name": "value",
          "type": "uint256"
        }
      ],
      "name": "Approval",
      "type": "event"
    },
    {
      "anonymous": false,
      "inputs": [
        {
          "indexed": true,
          "internalType": "address",
          "name": "previousOwner",
          "type": "address"
        },
        {
          "indexed": true,
          "internalType": "address",
          "name": "newOwner",
          "type": "address"
        }
      ],
      "name": "OwnershipTransferred",
      "type": "event"
    },
    {
      "anonymous": false,
      "inputs": [
        {
          "indexed": true,
          "internalType": "address",
          "name": "from",
          "type": "address"
        },
        {
          "indexed": true,
          "internalType": "address",
          "name": "to",
          "type": "address"
        },
        {
          "indexed": false,
          "internalType": "uint256",
          "name": "value",
          "type": "uint256"
        }
      ],
      "name": "Transfer",
      "type": "event"
    },
    {
      "inputs": [
        {
          "internalType": "address",
          "name": "owner",
          "type": "address"
        },
        {
          "internalType": "address",
          "name": "spender",
          "type": "address"
        }
      ],
      "name": "allowance",
      "outputs": [
        {
          "internalType": "uint256",
          "name": "",
          "type": "uint256"
        }
      ],
      "stateMutability": "view",
      "type": "function"
    },
    {
      "inputs": [
        {
          "internalType": "address",
          "name": "spender",
          "type": "address"
        },
        {
          "internalType": "uint256",
          "name": "value",
          "type": "uint256"
        }
      ],
      "name": "approve",
      "outputs": [
        {
          "internalType": "bool",
          "name": "",
          "type": "bool"
        }
      ],
      "stateMutability": "nonpayable",
      "type": "function"
    },
    {
      "inputs": [
        {
          "internalType": "address",
          "name": "account",
          "type": "address"
        }
      ],
      "name": "balanceOf",
      "outputs": [
        {
          "internalType": "uint256",
          "name": "",
          "type": "uint256"
        }
      ],
      "stateMutability": "view",
      "type": "function"
    },
    {
      "inputs": [],
      "name": "decimals",
      "outputs": [
        {
          "internalType": "uint8",
          "name": "",
          "type": "uint8"
        }
      ],
      "stateMutability": "view",
      "type": "function"
    },
    {
      "inputs": [
        {
          "internalType": "address",
          "name": "recipient",
          "type": "address"
        },
        {
          "internalType": "uint256",
          "name": "amount",
          "type": "uint256"
        }
      ],
      "name": "distributeShares",
      "outputs": [],
      "stateMutability": "nonpayable",
      "type": "function"
    },
    {
      "inputs": [],
      "name": "name",
      "outputs": [
        {
          "internalType": "string",
          "name": "",
          "type": "string"
        }
      ],
      "stateMutability": "view",
      "type": "function"
    },
    {
      "inputs": [],
      "name": "owner",
      "outputs": [
        {
          "internalType": "address",
          "name": "",
          "type": "address"
        }
      ],
      "stateMutability": "view",
      "type": "function"
    },
    {
      "inputs": [
        {
          "internalType": "address",
          "name": "wallet",
          "type": "address"
        }
      ],
      "name": "ownershipPercentage",
      "outputs": [
        {
          "internalType": "uint256",
          "name": "",
          "type": "uint256"
        }
      ],
      "stateMutability": "view",
      "type": "function"
    },
    {
      "inputs": [],
      "name": "renounceOwnership",
      "outputs": [],
      "stateMutability": "nonpayable",
      "type": "function"
    },
    {
      "inputs": [],
      "name": "symbol",
      "outputs": [
        {
          "internalType": "string",
          "name": "",
          "type": "string"
        }
      ],
      "stateMutability": "view",
      "type": "function"
    },
    {
      "inputs": [],
      "name": "totalSupply",
      "outputs": [
        {
          "internalType": "uint256",
          "name": "",
          "type": "uint256"
        }
      ],
      "stateMutability": "view",
      "type": "function"
    },
    {
      "inputs": [
        {
          "internalType": "address",
          "name": "to",
          "type": "address"
        },
        {
          "internalType": "uint256",
          "name": "value",
          "type": "uint256"
        }
      ],
      "name": "transfer",
      "outputs": [
        {
          "internalType": "bool",
          "name": "",
          "type": "bool"
        }
      ],
      "stateMutability": "nonpayable",
      "type": "function"
    },
    {
      "inputs": [
        {
          "internalType": "address",
          "name": "from",
          "type": "address"
        },
        {
          "internalType": "address",
          "name": "to",
          "type": "address"
        },
        {
          "internalType": "uint256",
          "name": "value",
          "type": "uint256"
        }
      ],
      "name": "transferFrom",
      "outputs": [
        {
          "internalType": "bool",
          "name": "",
          "type": "bool"
        }
      ],
      "stateMutability": "nonpayable",
      "type": "function"
    },
    {
      "inputs": [
        {
          "internalType": "address",
          "name": "newOwner",
          "type": "address"
        }
      ],
      "name": "transferOwnership",
      "outputs": [],
      "stateMutability": "nonpayable",
      "type": "function"
    }
  ],
  "bytecode": "0x608060405234801562000010575f80fd5b5060405162001e8238038062001e82833981810160405281019062000036919062000577565b806040518060400160405280600e81526020017f414c55204c6f676f20546f6b656e0000000000000000000000000000000000008152506040518060400160405280600481526020017f414c5554000000000000000000000000000000000000000000000000000000008152508160039081620000b491906200080b565b508060049081620000c691906200080b565b5050505f73ffffffffffffffffffffffffffffffffffffffff168173ffffffffffffffffffffffffffffffffffffffff16036200013c575f6040517f1e4fbdf700000000000000000000000000000000000000000000000000000000815260040162000133919062000900565b60405180910390fd5b6200014d816200019960201b60201c565b505f6200015f6200025c60201b60201c565b600a6200016d919062000aa4565b620f42406200017d919062000af4565b90506200019182826200026460201b60201c565b505062000bdf565b5f60055f9054906101000a900473ffffffffffffffffffffffffffffffffffffffff1690508160055f6101000a81548173ffffffffffffffffffffffffffffffffffffffff021916908373ffffffffffffffffffffffffffffffffffffffff1602179055508173ffffffffffffffffffffffffffffffffffffffff168173ffffffffffffffffffffffffffffffffffffffff167f8be0079c531659141344cd1fd0a4f28419497f9722a3daafe3b4186f6b6457e060405160405180910390a35050565b5f6012905090565b5f73ffffffffffffffffffffffffffffffffffffffff168273ffffffffffffffffffffffffffffffffffffffff1603620002d7575f6040517fec442f05000000000000000000000000000000000000000000000000000000008152600401620002ce919062000900565b60405180910390fd5b620002ea5f8383620002ee60201b60201c565b5050565b5f73ffffffffffffffffffffffffffffffffffffffff168373ffffffffffffffffffffffffffffffffffffffff160362000342578060025f82825462000335919062000b3e565b9250508190555062000413565b5f805f8573ffffffffffffffffffffffffffffffffffffffff1673ffffffffffffffffffffffffffffffffffffffff1681526020019081526020015f2054905081811015620003ce578381836040517fe450d38c000000000000000000000000000000000000000000000000000000008152600401620003c59392919062000b89565b60405180910390fd5b8181035f808673ffffffffffffffffffffffffffffffffffffffff1673ffffffffffffffffffffffffffffffffffffffff1681526020019081526020015f2081905550505b5f73ffffffffffffffffffffffffffffffffffffffff168273ffffffffffffffffffffffffffffffffffffffff16036200045c578060025f8282540392505081905550620004a6565b805f808473ffffffffffffffffffffffffffffffffffffffff1673ffffffffffffffffffffffffffffffffffffffff1681526020019081526020015f205f82825401925050819055505b8173ffffffffffffffffffffffffffffffffffffffff168373ffffffffffffffffffffffffffffffffffffffff167fddf252ad1be2c89b69c2b068fc378daa952ba7f163c4a11628f55a4df523b3ef8360405162000505919062000bc4565b60405180910390a3505050565b5f80fd5b5f73ffffffffffffffffffffffffffffffffffffffff82169050919050565b5f620005418262000516565b9050919050565b620005538162000535565b81146200055e575f80fd5b50565b5f81519050620005718162000548565b92915050565b5f602082840312156200058f576200058e62000512565b5b5f6200059e8482850162000561565b91505092915050565b5f81519050919050565b7f4e487b71000000000000000000000000000000000000000000000000000000005f52604160045260245ffd5b7f4e487b71000000000000000000000000000000000000000000000000000000005f52602260045260245ffd5b5f60028204905060018216806200062357607f821691505b602082108103620006395762000638620005de565b5b50919050565b5f819050815f5260205f209050919050565b5f6020601f8301049050919050565b5f82821b905092915050565b5f600883026200069d7fffffffffffffffffffffffffffffffffffffffffffffffffffffffffffffffff8262000660565b620006a9868362000660565b95508019841693508086168417925050509392505050565b5f819050919050565b5f819050919050565b5f620006f3620006ed620006e784620006c1565b620006ca565b620006c1565b9050919050565b5f819050919050565b6200070e83620006d3565b620007266200071d82620006fa565b8484546200066c565b825550505050565b5f90565b6200073c6200072e565b6200074981848462000703565b505050565b5b818110156200077057620007645f8262000732565b6001810190506200074f565b5050565b601f821115620007bf5762000789816200063f565b620007948462000651565b81016020851015620007a4578190505b620007bc620007b38562000651565b8301826200074e565b50505b505050565b5f82821c905092915050565b5f620007e15f1984600802620007c4565b1980831691505092915050565b5f620007fb8383620007d0565b9150826002028217905092915050565b6200081682620005a7565b67ffffffffffffffff811115620008325762000831620005b1565b5b6200083e82546200060b565b6200084b82828562000774565b5f60209050601f83116001811462000881575f84156200086c578287015190505b620008788582620007ee565b865550620008e7565b601f19841662000891866200063f565b5f5b82811015620008ba5784890151825560018201915060208501945060208101905062000893565b86831015620008da5784890151620008d6601f891682620007d0565b8355505b6001600288020188555050505b505050505050565b620008fa8162000535565b82525050565b5f602082019050620009155f830184620008ef565b92915050565b7f4e487b71000000000000000000000000000000000000000000000000000000005f52601160045260245ffd5b5f8160011c9050919050565b5f808291508390505b6001851115620009a5578086048111156200097d576200097c6200091b565b5b60018516156200098d5780820291505b80810290506200099d8562000948565b94506200095d565b94509492505050565b5f82620009bf576001905062000a91565b81620009ce575f905062000a91565b8160018114620009e75760028114620009f25762000a28565b600191505062000a91565b60ff84111562000a075762000a066200091b565b5b8360020a91508482111562000a215762000a206200091b565b5b5062000a91565b5060208310610133831016604e8410600b841016171562000a625782820a90508381111562000a5c5762000a5b6200091b565b5b62000a91565b62000a71848484600162000954565b9250905081840481111562000a8b5762000a8a6200091b565b5b81810290505b9392505050565b5f60ff82169050919050565b5f62000ab082620006c1565b915062000abd8362000a98565b925062000aec7fffffffffffffffffffffffffffffffffffffffffffffffffffffffffffffffff8484620009ae565b905092915050565b5f62000b0082620006c1565b915062000b0d83620006c1565b925082820262000b1d81620006c1565b9150828204841483151762000b375762000b366200091b565b5b5092915050565b5f62000b4a82620006c1565b915062000b5783620006c1565b925082820190508082111562000b725762000b716200091b565b5b92915050565b62000b8381620006c1565b82525050565b5f60608201905062000b9e5f830186620008ef565b62000bad602083018562000b78565b62000bbc604083018462000b78565b949350505050565b5f60208201905062000bd95f83018462000b78565b92915050565b6112958062000bed5f395ff3fe608060405234801561000f575f80fd5b50600436106100e8575f3560e01c80638da5cb5b1161008a578063d8dab03311610064578063d8dab0331461024c578063dd62ed3e1461027c578063debcf0e5146102ac578063f2fde38b146102c8576100e8565b80638da5cb5b146101e057806395d89b41146101fe578063a9059cbb1461021c576100e8565b806323b872dd116100c657806323b872dd14610158578063313ce5671461018857806370a08231146101a6578063715018a6146101d6576100e8565b806306fdde03146100ec578063095ea7b31461010a57806318160ddd1461013a575b5f80fd5b6100f46102e4565b6040516101019190610e08565b60405180910390f35b610124600480360381019061011f9190610eb9565b610374565b6040516101319190610f11565b60405180910390f35b610142610396565b60405161014f9190610f39565b60405180910390f35b610172600480360381019061016d9190610f52565b61039f565b60405161017f9190610f11565b60405180910390f35b6101906103cd565b60405161019d9190610fbd565b60405180910390f35b6101c060048036038101906101bb9190610fd6565b6103d5565b6040516101cd9190610f39565b60405180910390f35b6101de61041a565b005b6101e861042d565b6040516101f59190611010565b60405180910390f35b610206610455565b6040516102139190610e08565b60405180910390f35b61023660048036038101906102319190610eb9565b6104e5565b6040516102439190610f11565b60405180910390f35b61026660048036038101906102619190610fd6565b610507565b6040516102739190610f39565b60405180910390f35b61029660048036038101906102919190611029565b610551565b6040516102a39190610f39565b60405180910390f35b6102c660048036038101906102c19190610eb9565b6105d3565b005b6102e260048036038101906102dd9190610fd6565b61062c565b005b6060600380546102f390611094565b80601f016020809104026020016040519081016040528092919081815260200182805461031f90611094565b801561036a5780601f106103415761010080835404028352916020019161036a565b820191905f5260205f20905b81548152906001019060200180831161034d57829003601f168201915b5050505050905090565b5f8061037e6106b0565b905061038b8185856106b7565b600191505092915050565b5f600254905090565b5f806103a96106b0565b90506103b68582856106c9565b6103c185858561075c565b60019150509392505050565b5f6012905090565b5f805f8373ffffffffffffffffffffffffffffffffffffffff1673ffffffffffffffffffffffffffffffffffffffff1681526020019081526020015f20549050919050565b61042261084c565b61042b5f6108d3565b565b5f60055f9054906101000a900473ffffffffffffffffffffffffffffffffffffffff16905090565b60606004805461046490611094565b80601f016020809104026020016040519081016040528092919081815260200182805461049090611094565b80156104db5780601f106104b2576101008083540402835291602001916104db565b820191905f5260205f20905b8154815290600101906020018083116104be57829003601f168201915b5050505050905090565b5f806104ef6106b0565b90506104fc81858561075c565b600191505092915050565b5f80610511610396565b90505f8103610523575f91505061054c565b5f61052d846103d5565b90508160648261053d91906110f1565b610547919061115f565b925050505b919050565b5f60015f8473ffffffffffffffffffffffffffffffffffffffff1673ffffffffffffffffffffffffffffffffffffffff1681526020019081526020015f205f8373ffffffffffffffffffffffffffffffffffffffff1673ffffffffffffffffffffffffffffffffffffffff1681526020019081526020015f2054905092915050565b6105db61084c565b5f811161061d576040517f08c379a0000000000000000000000000000000000000000000000000000000008152600401610614906111d9565b60405180910390fd5b61062782826104e5565b505050565b61063461084c565b5f73ffffffffffffffffffffffffffffffffffffffff168173ffffffffffffffffffffffffffffffffffffffff16036106a4575f6040517f1e4fbdf700000000000000000000000000000000000000000000000000000000815260040161069b9190611010565b60405180910390fd5b6106ad816108d3565b50565b5f33905090565b6106c48383836001610996565b505050565b5f6106d48484610551565b90507fffffffffffffffffffffffffffffffffffffffffffffffffffffffffffffffff8110156107565781811015610747578281836040517ffb8f41b200000000000000000000000000000000000000000000000000000000815260040161073e939291906111f7565b60405180910390fd5b61075584848484035f610996565b5b50505050565b5f73ffffffffffffffffffffffffffffffffffffffff168373ffffffffffffffffffffffffffffffffffffffff16036107cc575f6040517f96c6fd1e0000000000000000000000000000000000000000000000000000000081526004016107c39190611010565b60405180910390fd5b5f73ffffffffffffffffffffffffffffffffffffffff168273ffffffffffffffffffffffffffffffffffffffff160361083c575f6040517fec442f050000000000000000000000000000000000000000000000000000000081526004016108339190611010565b60405180910390fd5b610847838383610b65565b505050565b6108546106b0565b73ffffffffffffffffffffffffffffffffffffffff1661087261042d565b73ffffffffffffffffffffffffffffffffffffffff16146108d1576108956106b0565b6040517f118cdaa70000000000000000000000000000000000000000000000000000000081526004016108c89190611010565b60405180910390fd5b565b5f60055f9054906101000a900473ffffffffffffffffffffffffffffffffffffffff1690508160055f6101000a81548173ffffffffffffffffffffffffffffffffffffffff021916908373ffffffffffffffffffffffffffffffffffffffff1602179055508173ffffffffffffffffffffffffffffffffffffffff168173ffffffffffffffffffffffffffffffffffffffff167f8be0079c531659141344cd1fd0a4f28419497f9722a3daafe3b4186f6b6457e060405160405180910390a35050565b5f73ffffffffffffffffffffffffffffffffffffffff168473ffffffffffffffffffffffffffffffffffffffff1603610a06575f6040517fe602df050000000000000000000000000000000000000000000000000000000081526004016109fd9190611010565b60405180910390fd5b5f73ffffffffffffffffffffffffffffffffffffffff168373ffffffffffffffffffffffffffffffffffffffff1603610a76575f6040517f94280d62000000000000000000000000000000000000000000000000000000008152600401610a6d9190611010565b60405180910390fd5b8160015f8673ffffffffffffffffffffffffffffffffffffffff1673ffffffffffffffffffffffffffffffffffffffff1681526020019081526020015f205f8573ffffffffffffffffffffffffffffffffffffffff1673ffffffffffffffffffffffffffffffffffffffff1681526020019081526020015f20819055508015610b5f578273ffffffffffffffffffffffffffffffffffffffff168473ffffffffffffffffffffffffffffffffffffffff167f8c5be1e5ebec7d5bd14f71427d1e84f3dd0314c0f7b2291e5b200ac8c7c3b92584604051610b569190610f39565b60405180910390a35b50505050565b5f73ffffffffffffffffffffffffffffffffffffffff168373ffffffffffffffffffffffffffffffffffffffff1603610bb5578060025f828254610ba9919061122c565b92505081905550610c83565b5f805f8573ffffffffffffffffffffffffffffffffffffffff1673ffffffffffffffffffffffffffffffffffffffff1681526020019081526020015f2054905081811015610c3e578381836040517fe450d38c000000000000000000000000000000000000000000000000000000008152600401610c35939291906111f7565b60405180910390fd5b8181035f808673ffffffffffffffffffffffffffffffffffffffff1673ffffffffffffffffffffffffffffffffffffffff1681526020019081526020015f2081905550505b5f73ffffffffffffffffffffffffffffffffffffffff168273ffffffffffffffffffffffffffffffffffffffff1603610cca578060025f8282540392505081905550610d14565b805f808473ffffffffffffffffffffffffffffffffffffffff1673ffffffffffffffffffffffffffffffffffffffff1681526020019081526020015f205f82825401925050819055505b8173ffffffffffffffffffffffffffffffffffffffff168373ffffffffffffffffffffffffffffffffffffffff167fddf252ad1be2c89b69c2b068fc378daa952ba7f163c4a11628f55a4df523b3ef83604051610d719190610f39565b60405180910390a3505050565b5f81519050919050565b5f82825260208201905092915050565b5f5b83811015610db5578082015181840152602081019050610d9a565b5f8484015250505050565b5f601f19601f8301169050919050565b5f610dda82610d7e565b610de48185610d88565b9350610df4818560208601610d98565b610dfd81610dc0565b840191505092915050565b5f6020820190508181035f830152610e208184610dd0565b905092915050565b5f80fd5b5f73ffffffffffffffffffffffffffffffffffffffff82169050919050565b5f610e5582610e2c565b9050919050565b610e6581610e4b565b8114610e6f575f80fd5b50565b5f81359050610e8081610e5c565b92915050565b5f819050919050565b610e9881610e86565b8114610ea2575f80fd5b50565b5f81359050610eb381610e8f565b92915050565b5f8060408385031215610ecf57610ece610e28565b5b5f610edc85828601610e72565b9250506020610eed85828601610ea5565b9150509250929050565b5f8115159050919050565b610f0b81610ef7565b82525050565b5f602082019050610f245f830184610f02565b92915050565b610f3381610e86565b82525050565b5f602082019050610f4c5f830184610f2a565b92915050565b5f805f60608486031215610f6957610f68610e28565b5b5f610f7686828701610e72565b9350506020610f8786828701610e72565b9250506040610f9886828701610ea5565b9150509250925092565b5f60ff82169050919050565b610fb781610fa2565b82525050565b5f602082019050610fd05f830184610fae565b92915050565b5f60208284031215610feb57610fea610e28565b5b5f610ff884828501610e72565b91505092915050565b61100a81610e4b565b82525050565b5f6020820190506110235f830184611001565b92915050565b5f806040838503121561103f5761103e610e28565b5b5f61104c85828601610e72565b925050602061105d85828601610e72565b9150509250929050565b7f4e487b71000000000000000000000000000000000000000000000000000000005f52602260045260245ffd5b5f60028204905060018216806110ab57607f821691505b6020821081036110be576110bd611067565b5b50919050565b7f4e487b71000000000000000000000000000000000000000000000000000000005f52601160045260245ffd5b5f6110fb82610e86565b915061110683610e86565b925082820261111481610e86565b9150828204841483151761112b5761112a6110c4565b5b5092915050565b7f4e487b71000000000000000000000000000000000000000000000000000000005f52601260045260245ffd5b5f61116982610e86565b915061117483610e86565b92508261118457611183611132565b5b828204905092915050565b7f416d6f756e74206d7573742062652067726561746572207468616e207a65726f5f82015250565b5f6111c3602083610d88565b91506111ce8261118f565b602082019050919050565b5f6020820190508181035f8301526111f0816111b7565b9050919050565b5f60608201905061120a5f830186611001565b6112176020830185610f2a565b6112246040830184610f2a565b949350505050565b5f61123682610e86565b915061124183610e86565b9250828201905080821115611259576112586110c4565b5b9291505056fea26469706673582212209075d64c9585ddff0bdf9008135566c9b7fdb11d023ec9f118a8c6f06cf8cd7f64736f6c63430008180033",
  "linkReferences": {},
  "deployedLinkReferences": {}
}